{
  "_format": "hh-sol-artifact-1",
  "contractName": "BountyEscrow",
  "sourceName": "contracts/BountyEscrow.sol",
  "abi": [
    {
      "inputs": [],
      "stateMutability": "nonpayable",
      "type": "constructor"
    },
    {
      "inputs": [],
      "name": "AccessControlBadConfirmation",
      "type": "error"
    },
    {
      "inputs": [
        {
          "internalType": "address",
          "name": "account",
          "type": "address"
        },
        {
          "internalType": "bytes32",
          "name": "neededRole",
          "type": "bytes32"
        }
      ],
      "name": "AccessControlUnauthorizedAccount",
      "type": "error"
    },
    {
      "inputs": [
        {
          "internalType": "address",
          "name": "target",
          "type": "address"
        }
      ],
      "name": "AddressEmptyCode",
      "type": "error"
    },
    {
      "inputs": [
        {
          "internalType": "address",
          "name": "implementation",
          "type": "address"
        }
      ],
      "name": "ERC1967InvalidImplementation",
      "type": "error"
    },
    {
      "inputs": [],
      "name": "ERC1967NonPayable",
      "type": "error"
    },
    {
      "inputs": [],
      "name": "FailedCall",
      "type": "error"
    },
    {
      "inputs": [],
      "name": "InvalidInitialization",
      "type": "error"
    },
    {
      "inputs": [],
      "name": "NotInitializing",
      "type": "error"
    },
    {
      "inputs": [],
      "name": "ReentrancyGuardReentrantCall",
      "type": "error"
    },
    {
      "inputs": [],
      "name": "UUPSUnauthorizedCallContext",
      "type": "error"
    },
    {
      "inputs": [
        {
          "internalType": "bytes32",
          "name": "slot",
          "type": "bytes32"
        }
      ],
      "name": "UUPSUnsupportedProxiableUUID",
      "type": "error"
    },
    {
      "anonymous": false,
      "inputs": [
        {
          "indexed": true,
          "internalType": "uint256",
          "name": "bountyId",
          "type": "uint256"
        },
        {
          "indexed": true,
          "internalType": "address",
          "name": "hunter",
          "type": "address"
        }
      ],
      "name": "BountyClaimed",
      "type": "event"
    },
    {
      "anonymous": false,
      "inputs": [
        {
          "indexed": true,
          "internalType": "uint256",
          "name": "bountyId",
          "type": "uint256"
        },
        {
          "indexed": true,
          "internalType": "address",
          "name": "hunter",
          "type": "address"
        },
        {
          "indexed": false,
          "internalType": "uint256",
          "name": "amount",
          "type": "uint256"
        }
      ],
      "name": "BountyCompleted",
      "type": "event"
    },
    {
      "anonymous": false,
      "inputs": [
        {
          "indexed": true,
          "internalType": "uint256",
          "name": "bountyId",
          "type": "uint256"
        },
        {
          "indexed": true,
          "internalType": "address",
          "name": "creator",
          "type": "address"
        },
        {
          "indexed": false,
          "internalType": "uint256",
          "name": "amount",
          "type": "uint256"
        }
      ],
      "name": "BountyCreated",
      "type": "event"
    },
    {
      "anonymous": false,
      "inputs": [
        {
          "indexed": false,
          "internalType": "uint64",
          "name": "version",
          "type": "uint64"
        }
      ],
      "name": "Initialized",
      "type": "event"
    },
    {
      "anonymous": false,
      "inputs": [
        {
          "indexed": true,
          "internalType": "bytes32",
          "name": "role",
          "type": "bytes32"
        },
        {
          "indexed": true,
          "internalType": "bytes32",
          "name": "previousAdminRole",
          "type": "bytes32"
        },
        {
          "indexed": true,
          "internalType": "bytes32",
          "name": "newAdminRole",
          "type": "bytes32"
        }
      ],
      "name": "RoleAdminChanged",
      "type": "event"
    },
    {
      "anonymous": false,
      "inputs": [
        {
          "indexed": true,
          "internalType": "bytes32",
          "name": "role",
          "type": "bytes32"
        },
        {
          "indexed": true,
          "internalType": "address",
          "name": "account",
          "type": "address"
        },
        {
          "indexed": true,
          "internalType": "address",
          "name": "sender",
          "type": "address"
        }
      ],
      "name": "RoleGranted",
      "type": "event"
    },
    {
      "anonymous": false,
      "inputs": [
        {
          "indexed": true,
          "internalType": "bytes32",
          "name": "role",
          "type": "bytes32"
        },
        {
          "indexed": true,
          "internalType": "address",
          "name": "account",
          "type": "address"
        },
        {
          "indexed": true,
          "internalType": "address",
          "name": "sender",
          "type": "address"
        }
      ],
      "name": "RoleRevoked",
      "type": "event"
    },
    {
      "anonymous": false,
      "inputs": [
        {
          "indexed": true,
          "internalType": "address",
          "name": "implementation",
          "type": "address"
        }
      ],
      "name": "Upgraded",
      "type": "event"
    },
    {
      "anonymous": false,
      "inputs": [
        {
          "indexed": true,
          "internalType": "uint256",
          "name": "bountyId",
          "type": "uint256"
        },
        {
          "indexed": false,
          "internalType": "string",
          "name": "submissionURI",
          "type": "string"
        }
      ],
      "name": "WorkSubmitted",
      "type": "event"
    },
    {
      "inputs": [],
      "name": "ADMIN_ROLE",
      "outputs": [
        {
          "internalType": "bytes32",
          "name": "",
          "type": "bytes32"
        }
      ],
      "stateMutability": "view",
      "type": "function"
    },
    {
      "inputs": [],
      "name": "DEFAULT_ADMIN_ROLE",
      "outputs": [
        {
          "internalType": "bytes32",
          "name": "",
          "type": "bytes32"
        }
      ],
      "stateMutability": "view",
      "type": "function"
    },
    {
      "inputs": [],
      "name": "UPGRADER_ROLE",
      "outputs": [
        {
          "internalType": "bytes32",
          "name": "",
          "type": "bytes32"
        }
      ],
      "stateMutability": "view",
      "type": "function"
    },
    {
      "inputs": [],
      "name": "UPGRADE_INTERFACE_VERSION",
      "outputs": [
        {
          "internalType": "string",
          "name": "",
          "type": "string"
        }
      ],
      "stateMutability": "view",
      "type": "function"
    },
    {
      "inputs": [
        {
          "internalType": "uint256",
          "name": "_bountyId",
          "type": "uint256"
        }
      ],
      "name": "approveWork",
      "outputs": [],
      "stateMutability": "nonpayable",
      "type": "function"
    },
    {
      "inputs": [
        {
          "internalType": "uint256",
          "name": "",
          "type": "uint256"
        }
      ],
      "name": "bounties",
      "outputs": [
        {
          "internalType": "uint256",
          "name": "id",
          "type": "uint256"
        },
        {
          "internalType": "address",
          "name": "creator",
          "type": "address"
        },
        {
          "internalType": "string",
          "name": "title",
          "type": "string"
        },
        {
          "internalType": "string",
          "name": "descriptionURI",
          "type": "string"
        },
        {
          "internalType": "uint256",
          "name": "amount",
          "type": "uint256"
        },
        {
          "internalType": "uint256",
          "name": "deadline",
          "type": "uint256"
        },
        {
          "internalType": "address",
          "name": "assignedHunter",
          "type": "address"
        },
        {
          "internalType": "string",
          "name": "submissionURI",
          "type": "string"
        },
        {
          "internalType": "enum BountyEscrow.Status",
          "name": "status",
          "type": "uint8"
        },
        {
          "internalType": "uint256",
          "name": "createdAt",
          "type": "uint256"
        }
      ],
      "stateMutability": "view",
      "type": "function"
    },
    {
      "inputs": [
        {
          "internalType": "uint256",
          "name": "_bountyId",
          "type": "uint256"
        }
      ],
      "name": "claimBounty",
      "outputs": [],
      "stateMutability": "nonpayable",
      "type": "function"
    },
    {
      "inputs": [
        {
          "internalType": "string",
          "name": "_title",
          "type": "string"
        },
        {
          "internalType": "string",
          "name": "_descriptionURI",
          "type": "string"
        },
        {
          "internalType": "uint256",
          "name": "_amount",
          "type": "uint256"
        },
        {
          "internalType": "uint256",
          "name": "_duration",
          "type": "uint256"
        }
      ],
      "name": "createBounty",
      "outputs": [],
      "stateMutability": "nonpayable",
      "type": "function"
    },
    {
      "inputs": [
        {
          "internalType": "bytes32",
          "name": "role",
          "type": "bytes32"
        }
      ],
      "name": "getRoleAdmin",
      "outputs": [
        {
          "internalType": "bytes32",
          "name": "",
          "type": "bytes32"
        }
      ],
      "stateMutability": "view",
      "type": "function"
    },
    {
      "inputs": [
        {
          "internalType": "bytes32",
          "name": "role",
          "type": "bytes32"
        },
        {
          "internalType": "address",
          "name": "account",
          "type": "address"
        }
      ],
      "name": "grantRole",
      "outputs": [],
      "stateMutability": "nonpayable",
      "type": "function"
    },
    {
      "inputs": [
        {
          "internalType": "bytes32",
          "name": "role",
          "type": "bytes32"
        },
        {
          "internalType": "address",
          "name": "account",
          "type": "address"
        }
      ],
      "name": "hasRole",
      "outputs": [
        {
          "internalType": "bool",
          "name": "",
          "type": "bool"
        }
      ],
      "stateMutability": "view",
      "type": "function"
    },
    {
      "inputs": [
        {
          "internalType": "address",
          "name": "_mneeToken",
          "type": "address"
        },
        {
          "internalType": "address",
          "name": "_admin",
          "type": "address"
        }
      ],
      "name": "initialize",
      "outputs": [],
      "stateMutability": "nonpayable",
      "type": "function"
    },
    {
      "inputs": [],
      "name": "mneeToken",
      "outputs": [
        {
          "internalType": "contract IERC20",
          "name": "",
          "type": "address"
        }
      ],
      "stateMutability": "view",
      "type": "function"
    },
    {
      "inputs": [],
      "name": "nextBountyId",
      "outputs": [
        {
          "internalType": "uint256",
          "name": "",
          "type": "uint256"
        }
      ],
      "stateMutability": "view",
      "type": "function"
    },
    {
      "inputs": [],
      "name": "proxiableUUID",
      "outputs": [
        {
          "internalType": "bytes32",
          "name": "",
          "type": "bytes32"
        }
      ],
      "stateMutability": "view",
      "type": "function"
    },
    {
      "inputs": [
        {
          "internalType": "bytes32",
          "name": "role",
          "type": "bytes32"
        },
        {
          "internalType": "address",
          "name": "callerConfirmation",
          "type": "address"
        }
      ],
      "name": "renounceRole",
      "outputs": [],
      "stateMutability": "nonpayable",
      "type": "function"
    },
    {
      "inputs": [
        {
          "internalType": "bytes32",
          "name": "role",
          "type": "bytes32"
        },
        {
          "internalType": "address",
          "name": "account",
          "type": "address"
        }
      ],
      "name": "revokeRole",
      "outputs": [],
      "stateMutability": "nonpayable",
      "type": "function"
    },
    {
      "inputs": [
        {
          "internalType": "uint256",
          "name": "_bountyId",
          "type": "uint256"
        },
        {
          "internalType": "string",
          "name": "_submissionURI",
          "type": "string"
        }
      ],
      "name": "submitWork",
      "outputs": [],
      "stateMutability": "nonpayable",
      "type": "function"
    },
    {
      "inputs": [
        {
          "internalType": "bytes4",
          "name": "interfaceId",
          "type": "bytes4"
        }
      ],
      "name": "supportsInterface",
      "outputs": [
        {
          "internalType": "bool",
          "name": "",
          "type": "bool"
        }
      ],
      "stateMutability": "view",
      "type": "function"
    },
    {
      "inputs": [
        {
          "internalType": "address",
          "name": "newImplementation",
          "type": "address"
        },
        {
          "internalType": "bytes",
          "name": "data",
          "type": "bytes"
        }
      ],
      "name": "upgradeToAndCall",
      "outputs": [],
      "stateMutability": "payable",
      "type": "function"
    }
  ],
  "bytecode": "0x60a06040523073ffffffffffffffffffffffffffffffffffffffff1660809073ffffffffffffffffffffffffffffffffffffffff168152503480156200004457600080fd5b50620000556200005b60201b60201c565b620001ee565b60006200006d6200016560201b60201c565b90508060000160089054906101000a900460ff1615620000b9576040517ff92ee8a900000000000000000000000000000000000000000000000000000000815260040160405180910390fd5b67ffffffffffffffff80168160000160009054906101000a900467ffffffffffffffff1667ffffffffffffffff1614620001625767ffffffffffffffff8160000160006101000a81548167ffffffffffffffff021916908367ffffffffffffffff1602179055507fc7f505b2f371ae2175ee4913f4499e1f2633a7b5936321eed1cdaeb6115181d267ffffffffffffffff604051620001599190620001d1565b60405180910390a15b50565b600080620001786200018160201b60201c565b90508091505090565b60007ff0c57e16840df040f15088dc2f81fe391c3923bec73e23a9662efc9c229c6a0060001b905090565b600067ffffffffffffffff82169050919050565b620001cb81620001ac565b82525050565b6000602082019050620001e86000830184620001c0565b92915050565b60805161319e62000218600039600081816119250152818161197a0152611b58015261319e6000f3fe60806040526004361061011f5760003560e01c806375b238fc116100a0578063da8accf911610064578063da8accf9146103c4578063dc2f8744146103ed578063e31202c014610433578063f72c0d8b1461045c578063fd14fad4146104875761011f565b806375b238fc146102dd57806391d1485414610308578063a217fddf14610345578063ad3cb1cc14610370578063d547741f1461039b5761011f565b806344021ad7116100e757806344021ad714610219578063485cc955146102425780634f1ef2861461026b57806352d1902d146102875780635b71474a146102b25761011f565b806301ffc9a714610124578063248a9ca3146101615780632f2ff15d1461019e57806336568abe146101c75780633d01e0fa146101f0575b600080fd5b34801561013057600080fd5b5061014b60048036038101906101469190612089565b6104b2565b60405161015891906120d1565b60405180910390f35b34801561016d57600080fd5b5061018860048036038101906101839190612122565b61052c565b604051610195919061215e565b60405180910390f35b3480156101aa57600080fd5b506101c560048036038101906101c091906121d7565b61055a565b005b3480156101d357600080fd5b506101ee60048036038101906101e991906121d7565b61057c565b005b3480156101fc57600080fd5b506102176004803603810190610212919061224d565b6105f7565b005b34801561022557600080fd5b50610240600480360381019061023b919061224d565b6108dd565b005b34801561024e57600080fd5b506102696004803603810190610264919061227a565b610a7a565b005b61028560048036038101906102809190612400565b610cc6565b005b34801561029357600080fd5b5061029c610ce5565b6040516102a9919061215e565b60405180910390f35b3480156102be57600080fd5b506102c7610d18565b6040516102d491906124bb565b60405180910390f35b3480156102e957600080fd5b506102f2610d3e565b6040516102ff919061215e565b60405180910390f35b34801561031457600080fd5b5061032f600480360381019061032a91906121d7565b610d62565b60405161033c91906120d1565b60405180910390f35b34801561035157600080fd5b5061035a610ddb565b604051610367919061215e565b60405180910390f35b34801561037c57600080fd5b50610385610de2565b6040516103929190612555565b60405180910390f35b3480156103a757600080fd5b506103c260048036038101906103bd91906121d7565b610e1b565b005b3480156103d057600080fd5b506103eb60048036038101906103e69190612618565b610e3d565b005b3480156103f957600080fd5b50610414600480360381019061040f919061224d565b610fda565b60405161042a9a99989796959493929190612709565b60405180910390f35b34801561043f57600080fd5b5061045a600480360381019061045591906127ba565b611213565b005b34801561046857600080fd5b5061047161159e565b60405161047e919061215e565b60405180910390f35b34801561049357600080fd5b5061049c6115c2565b6040516104a99190612859565b60405180910390f35b60007f7965db0b000000000000000000000000000000000000000000000000000000007bffffffffffffffffffffffffffffffffffffffffffffffffffffffff1916827bffffffffffffffffffffffffffffffffffffffffffffffffffffffff191614806105255750610524826115c8565b5b9050919050565b600080610537611632565b905080600001600084815260200190815260200160002060010154915050919050565b6105638261052c565b61056c8161165a565b610576838361166e565b50505050565b61058461176f565b73ffffffffffffffffffffffffffffffffffffffff168173ffffffffffffffffffffffffffffffffffffffff16146105e8576040517f6697b23200000000000000000000000000000000000000000000000000000000815260040160405180910390fd5b6105f28282611777565b505050565b6105ff611879565b60006001600083815260200190815260200160002090508060010160009054906101000a900473ffffffffffffffffffffffffffffffffffffffff1673ffffffffffffffffffffffffffffffffffffffff163373ffffffffffffffffffffffffffffffffffffffff16146106a8576040517f08c379a000000000000000000000000000000000000000000000000000000000815260040161069f906128c0565b60405180910390fd5b600260048111156106bc576106bb612692565b5b8160080160009054906101000a900460ff1660048111156106e0576106df612692565b5b14610720576040517f08c379a00000000000000000000000000000000000000000000000000000000081526004016107179061292c565b60405180910390fd5b60038160080160006101000a81548160ff0219169083600481111561074857610747612692565b5b02179055506000600260009054906101000a900473ffffffffffffffffffffffffffffffffffffffff1673ffffffffffffffffffffffffffffffffffffffff1663a9059cbb8360060160009054906101000a900473ffffffffffffffffffffffffffffffffffffffff1684600401546040518363ffffffff1660e01b81526004016107d492919061294c565b6020604051808303816000875af11580156107f3573d6000803e3d6000fd5b505050506040513d601f19601f8201168201806040525081019061081791906129a1565b905080610859576040517f08c379a000000000000000000000000000000000000000000000000000000000815260040161085090612a1a565b60405180910390fd5b8160060160009054906101000a900473ffffffffffffffffffffffffffffffffffffffff1673ffffffffffffffffffffffffffffffffffffffff16837f285d0f935b4d6592b80efc46cc3d9eb3e93e27fe245f0a6c2b5b9a9d04800ee784600401546040516108c89190612859565b60405180910390a350506108da6118d0565b50565b6108e5611879565b6000600160008381526020019081526020016000209050600060048111156109105761090f612692565b5b8160080160009054906101000a900460ff16600481111561093457610933612692565b5b14610974576040517f08c379a000000000000000000000000000000000000000000000000000000000815260040161096b90612a86565b60405180910390fd5b806005015442106109ba576040517f08c379a00000000000000000000000000000000000000000000000000000000081526004016109b190612af2565b60405180910390fd5b60018160080160006101000a81548160ff021916908360048111156109e2576109e1612692565b5b0217905550338160060160006101000a81548173ffffffffffffffffffffffffffffffffffffffff021916908373ffffffffffffffffffffffffffffffffffffffff1602179055503373ffffffffffffffffffffffffffffffffffffffff16827fbf59c0d059a57ebf273b4b1643599fc4b48cf5effdd82113a740ed64d262ec9360405160405180910390a350610a776118d0565b50565b6000610a846118e9565b905060008160000160089054906101000a900460ff1615905060008260000160009054906101000a900467ffffffffffffffff1690506000808267ffffffffffffffff16148015610ad25750825b9050600060018367ffffffffffffffff16148015610b07575060003073ffffffffffffffffffffffffffffffffffffffff163b145b905081158015610b15575080155b15610b4c576040517ff92ee8a900000000000000000000000000000000000000000000000000000000815260040160405180910390fd5b60018560000160006101000a81548167ffffffffffffffff021916908367ffffffffffffffff1602179055508315610b9c5760018560000160086101000a81548160ff0219169083151502179055505b610ba46118fd565b610bac611907565b610bb4611911565b610bc16000801b8761166e565b50610bec7fa49807205ce4d355092ef5a8a18f56e8913cf4a201fbe287825b095693c217758761166e565b50610c177f189ab7a9244df0848122154315af71fe140f3db0fe014031783b0946b8c9d2e38761166e565b5086600260006101000a81548173ffffffffffffffffffffffffffffffffffffffff021916908373ffffffffffffffffffffffffffffffffffffffff16021790555060016000819055508315610cbd5760008560000160086101000a81548160ff0219169083151502179055507fc7f505b2f371ae2175ee4913f4499e1f2633a7b5936321eed1cdaeb6115181d26001604051610cb49190612b61565b60405180910390a15b50505050505050565b610cce611923565b610cd782611a09565b610ce18282611a37565b5050565b6000610cef611b56565b7f360894a13ba1a3210667c828492db98dca3e2076cc3735a920a3ca505d382bbc60001b905090565b600260009054906101000a900473ffffffffffffffffffffffffffffffffffffffff1681565b7fa49807205ce4d355092ef5a8a18f56e8913cf4a201fbe287825b095693c2177581565b600080610d6d611632565b905080600001600085815260200190815260200160002060000160008473ffffffffffffffffffffffffffffffffffffffff1673ffffffffffffffffffffffffffffffffffffffff16815260200190815260200160002060009054906101000a900460ff1691505092915050565b6000801b81565b6040518060400160405280600581526020017f352e302e3000000000000000000000000000000000000000000000000000000081525081565b610e248261052c565b610e2d8161165a565b610e378383611777565b50505050565b600060016000848152602001908152602001600020905060016004811115610e6857610e67612692565b5b8160080160009054906101000a900460ff166004811115610e8c57610e8b612692565b5b14610ecc576040517f08c379a0000000000000000000000000000000000000000000000000000000008152600401610ec390612bc8565b60405180910390fd5b3373ffffffffffffffffffffffffffffffffffffffff168160060160009054906101000a900473ffffffffffffffffffffffffffffffffffffffff1673ffffffffffffffffffffffffffffffffffffffff1614610f5e576040517f08c379a0000000000000000000000000000000000000000000000000000000008152600401610f5590612c34565b60405180910390fd5b60028160080160006101000a81548160ff02191690836004811115610f8657610f85612692565b5b021790555081816007019081610f9c9190612e56565b50827f3822c71b106c7c1dabf7f076e68c9bd98c45d0cd0d073f4dcdaf422a0fe5584783604051610fcd9190612555565b60405180910390a2505050565b60016020528060005260406000206000915090508060000154908060010160009054906101000a900473ffffffffffffffffffffffffffffffffffffffff169080600201805461102990612c83565b80601f016020809104026020016040519081016040528092919081815260200182805461105590612c83565b80156110a25780601f10611077576101008083540402835291602001916110a2565b820191906000526020600020905b81548152906001019060200180831161108557829003601f168201915b5050505050908060030180546110b790612c83565b80601f01602080910402602001604051908101604052809291908181526020018280546110e390612c83565b80156111305780601f1061110557610100808354040283529160200191611130565b820191906000526020600020905b81548152906001019060200180831161111357829003601f168201915b5050505050908060040154908060050154908060060160009054906101000a900473ffffffffffffffffffffffffffffffffffffffff169080600701805461117790612c83565b80601f01602080910402602001604051908101604052809291908181526020018280546111a390612c83565b80156111f05780601f106111c5576101008083540402835291602001916111f0565b820191906000526020600020905b8154815290600101906020018083116111d357829003601f168201915b5050505050908060080160009054906101000a900460ff1690806009015490508a565b61121b611879565b6000821161125e576040517f08c379a000000000000000000000000000000000000000000000000000000000815260040161125590612f74565b60405180910390fd5b6000600260009054906101000a900473ffffffffffffffffffffffffffffffffffffffff1673ffffffffffffffffffffffffffffffffffffffff166323b872dd3330866040518463ffffffff1660e01b81526004016112bf93929190612f94565b6020604051808303816000875af11580156112de573d6000803e3d6000fd5b505050506040513d601f19601f8201168201806040525081019061130291906129a1565b905080611344576040517f08c379a000000000000000000000000000000000000000000000000000000000815260040161133b90613017565b60405180910390fd5b60405180610140016040528060005481526020013373ffffffffffffffffffffffffffffffffffffffff16815260200186815260200185815260200184815260200183426113929190613066565b8152602001600073ffffffffffffffffffffffffffffffffffffffff168152602001604051806020016040528060008152508152602001600060048111156113dd576113dc612692565b5b81526020014281525060016000805481526020019081526020016000206000820151816000015560208201518160010160006101000a81548173ffffffffffffffffffffffffffffffffffffffff021916908373ffffffffffffffffffffffffffffffffffffffff16021790555060408201518160020190816114609190612e56565b5060608201518160030190816114769190612e56565b506080820151816004015560a0820151816005015560c08201518160060160006101000a81548173ffffffffffffffffffffffffffffffffffffffff021916908373ffffffffffffffffffffffffffffffffffffffff16021790555060e08201518160070190816114e79190612e56565b506101008201518160080160006101000a81548160ff0219169083600481111561151457611513612692565b5b021790555061012082015181600901559050503373ffffffffffffffffffffffffffffffffffffffff166000547f1b5e39b039983ddb5862b33842ac157179867c6df1a61f69c50465fd14017f6e856040516115709190612859565b60405180910390a360008081548092919061158a9061309a565b9190505550506115986118d0565b50505050565b7f189ab7a9244df0848122154315af71fe140f3db0fe014031783b0946b8c9d2e381565b60005481565b60007f01ffc9a7000000000000000000000000000000000000000000000000000000007bffffffffffffffffffffffffffffffffffffffffffffffffffffffff1916827bffffffffffffffffffffffffffffffffffffffffffffffffffffffff1916149050919050565b60007f02dd7bc7dec4dceedda775e58dd541e08a116c6c53815c0bd028192f7b626800905090565b61166b8161166661176f565b611bdd565b50565b600080611679611632565b90506116858484610d62565b61176357600181600001600086815260200190815260200160002060000160008573ffffffffffffffffffffffffffffffffffffffff1673ffffffffffffffffffffffffffffffffffffffff16815260200190815260200160002060006101000a81548160ff0219169083151502179055506116ff61176f565b73ffffffffffffffffffffffffffffffffffffffff168373ffffffffffffffffffffffffffffffffffffffff16857f2f8788117e7eff1d82e926ec794901d17c78024a50270940304540a733656f0d60405160405180910390a46001915050611769565b60009150505b92915050565b600033905090565b600080611782611632565b905061178e8484610d62565b1561186d57600081600001600086815260200190815260200160002060000160008573ffffffffffffffffffffffffffffffffffffffff1673ffffffffffffffffffffffffffffffffffffffff16815260200190815260200160002060006101000a81548160ff02191690831515021790555061180961176f565b73ffffffffffffffffffffffffffffffffffffffff168373ffffffffffffffffffffffffffffffffffffffff16857ff6391f5c32d9c69d2a47ea670b442974b53935d1edc7fd64eb21e047a839171b60405160405180910390a46001915050611873565b60009150505b92915050565b6000611883611c2e565b905060028160000154036118c3576040517f3ee5aeb500000000000000000000000000000000000000000000000000000000815260040160405180910390fd5b6002816000018190555050565b60006118da611c2e565b90506001816000018190555050565b6000806118f4611c56565b90508091505090565b611905611c81565b565b61190f611c81565b565b611919611c81565b611921611cc1565b565b7f000000000000000000000000000000000000000000000000000000000000000073ffffffffffffffffffffffffffffffffffffffff163073ffffffffffffffffffffffffffffffffffffffff1614806119d057507f000000000000000000000000000000000000000000000000000000000000000073ffffffffffffffffffffffffffffffffffffffff166119b7611ce2565b73ffffffffffffffffffffffffffffffffffffffff1614155b15611a07576040517fe07c8dba00000000000000000000000000000000000000000000000000000000815260040160405180910390fd5b565b7f189ab7a9244df0848122154315af71fe140f3db0fe014031783b0946b8c9d2e3611a338161165a565b5050565b8173ffffffffffffffffffffffffffffffffffffffff166352d1902d6040518163ffffffff1660e01b8152600401602060405180830381865afa925050508015611a9f57506040513d601f19601f82011682018060405250810190611a9c91906130f7565b60015b611ae057816040517f4c9c8ce3000000000000000000000000000000000000000000000000000000008152600401611ad79190613124565b60405180910390fd5b7f360894a13ba1a3210667c828492db98dca3e2076cc3735a920a3ca505d382bbc60001b8114611b4757806040517faa1d49a4000000000000000000000000000000000000000000000000000000008152600401611b3e919061215e565b60405180910390fd5b611b518383611d39565b505050565b7f000000000000000000000000000000000000000000000000000000000000000073ffffffffffffffffffffffffffffffffffffffff163073ffffffffffffffffffffffffffffffffffffffff1614611bdb576040517fe07c8dba00000000000000000000000000000000000000000000000000000000815260040160405180910390fd5b565b611be78282610d62565b611c2a5780826040517fe2517d3f000000000000000000000000000000000000000000000000000000008152600401611c2192919061313f565b60405180910390fd5b5050565b60007f9b779b17422d0df92223018b32b4d1fa46e071723d6817e2486d003becc55f00905090565b60007ff0c57e16840df040f15088dc2f81fe391c3923bec73e23a9662efc9c229c6a0060001b905090565b611c89611dac565b611cbf576040517fd7e6bcf800000000000000000000000000000000000000000000000000000000815260040160405180910390fd5b565b611cc9611c81565b6000611cd3611c2e565b90506001816000018190555050565b6000611d107f360894a13ba1a3210667c828492db98dca3e2076cc3735a920a3ca505d382bbc60001b611dcc565b60000160009054906101000a900473ffffffffffffffffffffffffffffffffffffffff16905090565b611d4282611dd6565b8173ffffffffffffffffffffffffffffffffffffffff167fbc7cd75a20ee27fd9adebab32041f755214dbc6bffa90cc0225b39da2e5c2d3b60405160405180910390a2600081511115611d9f57611d998282611ea3565b50611da8565b611da7611f98565b5b5050565b6000611db66118e9565b60000160089054906101000a900460ff16905090565b6000819050919050565b60008173ffffffffffffffffffffffffffffffffffffffff163b03611e3257806040517f4c9c8ce3000000000000000000000000000000000000000000000000000000008152600401611e299190613124565b60405180910390fd5b80611e5f7f360894a13ba1a3210667c828492db98dca3e2076cc3735a920a3ca505d382bbc60001b611dcc565b60000160006101000a81548173ffffffffffffffffffffffffffffffffffffffff021916908373ffffffffffffffffffffffffffffffffffffffff16021790555050565b60606000611eb18484611fd5565b9050808015611ee957506000611ec5611feb565b1180611ee8575060008473ffffffffffffffffffffffffffffffffffffffff163b115b5b15611efe57611ef6611ff3565b915050611f92565b8015611f4157836040517f9996b315000000000000000000000000000000000000000000000000000000008152600401611f389190613124565b60405180910390fd5b6000611f4b611feb565b1115611f5e57611f59612011565b611f90565b6040517fd6bda27500000000000000000000000000000000000000000000000000000000815260040160405180910390fd5b505b92915050565b6000341115611fd3576040517fb398979f00000000000000000000000000000000000000000000000000000000815260040160405180910390fd5b565b6000806000835160208501865af4905092915050565b60003d905090565b606060405190503d81523d6000602083013e3d602001810160405290565b6040513d6000823e3d81fd5b6000604051905090565b600080fd5b600080fd5b60007fffffffff0000000000000000000000000000000000000000000000000000000082169050919050565b61206681612031565b811461207157600080fd5b50565b6000813590506120838161205d565b92915050565b60006020828403121561209f5761209e612027565b5b60006120ad84828501612074565b91505092915050565b60008115159050919050565b6120cb816120b6565b82525050565b60006020820190506120e660008301846120c2565b92915050565b6000819050919050565b6120ff816120ec565b811461210a57600080fd5b50565b60008135905061211c816120f6565b92915050565b60006020828403121561213857612137612027565b5b60006121468482850161210d565b91505092915050565b612158816120ec565b82525050565b6000602082019050612173600083018461214f565b92915050565b600073ffffffffffffffffffffffffffffffffffffffff82169050919050565b60006121a482612179565b9050919050565b6121b481612199565b81146121bf57600080fd5b50565b6000813590506121d1816121ab565b92915050565b600080604083850312156121ee576121ed612027565b5b60006121fc8582860161210d565b925050602061220d858286016121c2565b9150509250929050565b6000819050919050565b61222a81612217565b811461223557600080fd5b50565b60008135905061224781612221565b92915050565b60006020828403121561226357612262612027565b5b600061227184828501612238565b91505092915050565b6000806040838503121561229157612290612027565b5b600061229f858286016121c2565b92505060206122b0858286016121c2565b9150509250929050565b600080fd5b600080fd5b6000601f19601f8301169050919050565b7f4e487b7100000000000000000000000000000000000000000000000000000000600052604160045260246000fd5b61230d826122c4565b810181811067ffffffffffffffff8211171561232c5761232b6122d5565b5b80604052505050565b600061233f61201d565b905061234b8282612304565b919050565b600067ffffffffffffffff82111561236b5761236a6122d5565b5b612374826122c4565b9050602081019050919050565b82818337600083830152505050565b60006123a361239e84612350565b612335565b9050828152602081018484840111156123bf576123be6122bf565b5b6123ca848285612381565b509392505050565b600082601f8301126123e7576123e66122ba565b5b81356123f7848260208601612390565b91505092915050565b6000806040838503121561241757612416612027565b5b6000612425858286016121c2565b925050602083013567ffffffffffffffff8111156124465761244561202c565b5b612452858286016123d2565b9150509250929050565b6000819050919050565b600061248161247c61247784612179565b61245c565b612179565b9050919050565b600061249382612466565b9050919050565b60006124a582612488565b9050919050565b6124b58161249a565b82525050565b60006020820190506124d060008301846124ac565b92915050565b600081519050919050565b600082825260208201905092915050565b60005b838110156125105780820151818401526020810190506124f5565b60008484015250505050565b6000612527826124d6565b61253181856124e1565b93506125418185602086016124f2565b61254a816122c4565b840191505092915050565b6000602082019050818103600083015261256f818461251c565b905092915050565b600067ffffffffffffffff821115612592576125916122d5565b5b61259b826122c4565b9050602081019050919050565b60006125bb6125b684612577565b612335565b9050828152602081018484840111156125d7576125d66122bf565b5b6125e2848285612381565b509392505050565b600082601f8301126125ff576125fe6122ba565b5b813561260f8482602086016125a8565b91505092915050565b6000806040838503121561262f5761262e612027565b5b600061263d85828601612238565b925050602083013567ffffffffffffffff81111561265e5761265d61202c565b5b61266a858286016125ea565b9150509250929050565b61267d81612217565b82525050565b61268c81612199565b82525050565b7f4e487b7100000000000000000000000000000000000000000000000000000000600052602160045260246000fd5b600581106126d2576126d1612692565b5b50565b60008190506126e3826126c1565b919050565b60006126f3826126d5565b9050919050565b612703816126e8565b82525050565b60006101408201905061271f600083018d612674565b61272c602083018c612683565b818103604083015261273e818b61251c565b90508181036060830152612752818a61251c565b90506127616080830189612674565b61276e60a0830188612674565b61277b60c0830187612683565b81810360e083015261278d818661251c565b905061279d6101008301856126fa565b6127ab610120830184612674565b9b9a5050505050505050505050565b600080600080608085870312156127d4576127d3612027565b5b600085013567ffffffffffffffff8111156127f2576127f161202c565b5b6127fe878288016125ea565b945050602085013567ffffffffffffffff81111561281f5761281e61202c565b5b61282b878288016125ea565b935050604061283c87828801612238565b925050606061284d87828801612238565b91505092959194509250565b600060208201905061286e6000830184612674565b92915050565b7f4f6e6c792063726561746f722063616e20617070726f76650000000000000000600082015250565b60006128aa6018836124e1565b91506128b582612874565b602082019050919050565b600060208201905081810360008301526128d98161289d565b9050919050565b7f576f726b206e6f74207375626d69747465640000000000000000000000000000600082015250565b60006129166012836124e1565b9150612921826128e0565b602082019050919050565b6000602082019050818103600083015261294581612909565b9050919050565b60006040820190506129616000830185612683565b61296e6020830184612674565b9392505050565b61297e816120b6565b811461298957600080fd5b50565b60008151905061299b81612975565b92915050565b6000602082840312156129b7576129b6612027565b5b60006129c58482850161298c565b91505092915050565b7f5061796f7574206661696c656400000000000000000000000000000000000000600082015250565b6000612a04600d836124e1565b9150612a0f826129ce565b602082019050919050565b60006020820190508181036000830152612a33816129f7565b9050919050565b7f426f756e7479206e6f74206f70656e0000000000000000000000000000000000600082015250565b6000612a70600f836124e1565b9150612a7b82612a3a565b602082019050919050565b60006020820190508181036000830152612a9f81612a63565b9050919050565b7f426f756e74792065787069726564000000000000000000000000000000000000600082015250565b6000612adc600e836124e1565b9150612ae782612aa6565b602082019050919050565b60006020820190508181036000830152612b0b81612acf565b9050919050565b6000819050919050565b600067ffffffffffffffff82169050919050565b6000612b4b612b46612b4184612b12565b61245c565b612b1c565b9050919050565b612b5b81612b30565b82525050565b6000602082019050612b766000830184612b52565b92915050565b7f426f756e7479206e6f742061737369676e656400000000000000000000000000600082015250565b6000612bb26013836124e1565b9150612bbd82612b7c565b602082019050919050565b60006020820190508181036000830152612be181612ba5565b9050919050565b7f4e6f74207468652064657369676e617465642068756e74657200000000000000600082015250565b6000612c1e6019836124e1565b9150612c2982612be8565b602082019050919050565b60006020820190508181036000830152612c4d81612c11565b9050919050565b7f4e487b7100000000000000000000000000000000000000000000000000000000600052602260045260246000fd5b60006002820490506001821680612c9b57607f821691505b602082108103612cae57612cad612c54565b5b50919050565b60008190508160005260206000209050919050565b60006020601f8301049050919050565b600082821b905092915050565b600060088302612d167fffffffffffffffffffffffffffffffffffffffffffffffffffffffffffffffff82612cd9565b612d208683612cd9565b95508019841693508086168417925050509392505050565b6000612d53612d4e612d4984612217565b61245c565b612217565b9050919050565b6000819050919050565b612d6d83612d38565b612d81612d7982612d5a565b848454612ce6565b825550505050565b600090565b612d96612d89565b612da1818484612d64565b505050565b5b81811015612dc557612dba600082612d8e565b600181019050612da7565b5050565b601f821115612e0a57612ddb81612cb4565b612de484612cc9565b81016020851015612df3578190505b612e07612dff85612cc9565b830182612da6565b50505b505050565b600082821c905092915050565b6000612e2d60001984600802612e0f565b1980831691505092915050565b6000612e468383612e1c565b9150826002028217905092915050565b612e5f826124d6565b67ffffffffffffffff811115612e7857612e776122d5565b5b612e828254612c83565b612e8d828285612dc9565b600060209050601f831160018114612ec05760008415612eae578287015190505b612eb88582612e3a565b865550612f20565b601f198416612ece86612cb4565b60005b82811015612ef657848901518255600182019150602085019450602081019050612ed1565b86831015612f135784890151612f0f601f891682612e1c565b8355505b6001600288020188555050505b505050505050565b7f416d6f756e74206d757374206265203e20300000000000000000000000000000600082015250565b6000612f5e6012836124e1565b9150612f6982612f28565b602082019050919050565b60006020820190508181036000830152612f8d81612f51565b9050919050565b6000606082019050612fa96000830186612683565b612fb66020830185612683565b612fc36040830184612674565b949350505050565b7f457363726f77206465706f736974206661696c65640000000000000000000000600082015250565b60006130016015836124e1565b915061300c82612fcb565b602082019050919050565b6000602082019050818103600083015261303081612ff4565b9050919050565b7f4e487b7100000000000000000000000000000000000000000000000000000000600052601160045260246000fd5b600061307182612217565b915061307c83612217565b925082820190508082111561309457613093613037565b5b92915050565b60006130a582612217565b91507fffffffffffffffffffffffffffffffffffffffffffffffffffffffffffffffff82036130d7576130d6613037565b5b600182019050919050565b6000815190506130f1816120f6565b92915050565b60006020828403121561310d5761310c612027565b5b600061311b848285016130e2565b91505092915050565b60006020820190506131396000830184612683565b92915050565b60006040820190506131546000830185612683565b613161602083018461214f565b939250505056fea2646970667358221220a2ae8de4f0429915c0f3e15c0cebd7bcf956bcc29b541a07d60d77a3f576d05b64736f6c63430008180033",
  "linkReferences": {},
  "deployedLinkReferences": {}
}