{
  "_format": "hh-sol-artifact-1",
  "contractName": "BountyEscrow",
  "sourceName": "contracts/BountyEscrow.sol",
  "abi": [
    {
      "inputs": [
        {
          "internalType": "address",
          "name": "_mneeToken",
          "type": "address"
        }
      ],
      "stateMutability": "nonpayable",
      "type": "constructor"
    },
    {
      "inputs": [
        {
          "internalType": "address",
          "name": "owner",
          "type": "address"
        }
      ],
      "name": "OwnableInvalidOwner",
      "type": "error"
    },
    {
      "inputs": [
        {
          "internalType": "address",
          "name": "account",
          "type": "address"
        }
      ],
      "name": "OwnableUnauthorizedAccount",
      "type": "error"
    },
    {
      "anonymous": false,
      "inputs": [
        {
          "indexed": true,
          "internalType": "uint256",
          "name": "bountyId",
          "type": "uint256"
        },
        {
          "indexed": true,
          "internalType": "address",
          "name": "hunter",
          "type": "address"
        }
      ],
      "name": "BountyClaimed",
      "type": "event"
    },
    {
      "anonymous": false,
      "inputs": [
        {
          "indexed": true,
          "internalType": "uint256",
          "name": "bountyId",
          "type": "uint256"
        },
        {
          "indexed": true,
          "internalType": "address",
          "name": "hunter",
          "type": "address"
        },
        {
          "indexed": false,
          "internalType": "uint256",
          "name": "amount",
          "type": "uint256"
        }
      ],
      "name": "BountyCompleted",
      "type": "event"
    },
    {
      "anonymous": false,
      "inputs": [
        {
          "indexed": true,
          "internalType": "uint256",
          "name": "bountyId",
          "type": "uint256"
        },
        {
          "indexed": true,
          "internalType": "address",
          "name": "creator",
          "type": "address"
        },
        {
          "indexed": false,
          "internalType": "uint256",
          "name": "amount",
          "type": "uint256"
        }
      ],
      "name": "BountyCreated",
      "type": "event"
    },
    {
      "anonymous": false,
      "inputs": [
        {
          "indexed": true,
          "internalType": "address",
          "name": "previousOwner",
          "type": "address"
        },
        {
          "indexed": true,
          "internalType": "address",
          "name": "newOwner",
          "type": "address"
        }
      ],
      "name": "OwnershipTransferred",
      "type": "event"
    },
    {
      "anonymous": false,
      "inputs": [
        {
          "indexed": true,
          "internalType": "uint256",
          "name": "bountyId",
          "type": "uint256"
        },
        {
          "indexed": false,
          "internalType": "string",
          "name": "submissionURI",
          "type": "string"
        }
      ],
      "name": "WorkSubmitted",
      "type": "event"
    },
    {
      "inputs": [
        {
          "internalType": "uint256",
          "name": "_bountyId",
          "type": "uint256"
        }
      ],
      "name": "approveWork",
      "outputs": [],
      "stateMutability": "nonpayable",
      "type": "function"
    },
    {
      "inputs": [
        {
          "internalType": "uint256",
          "name": "",
          "type": "uint256"
        }
      ],
      "name": "bounties",
      "outputs": [
        {
          "internalType": "uint256",
          "name": "id",
          "type": "uint256"
        },
        {
          "internalType": "address",
          "name": "creator",
          "type": "address"
        },
        {
          "internalType": "string",
          "name": "title",
          "type": "string"
        },
        {
          "internalType": "string",
          "name": "descriptionURI",
          "type": "string"
        },
        {
          "internalType": "uint256",
          "name": "amount",
          "type": "uint256"
        },
        {
          "internalType": "uint256",
          "name": "deadline",
          "type": "uint256"
        },
        {
          "internalType": "address",
          "name": "assignedHunter",
          "type": "address"
        },
        {
          "internalType": "string",
          "name": "submissionURI",
          "type": "string"
        },
        {
          "internalType": "enum BountyEscrow.Status",
          "name": "status",
          "type": "uint8"
        },
        {
          "internalType": "uint256",
          "name": "createdAt",
          "type": "uint256"
        }
      ],
      "stateMutability": "view",
      "type": "function"
    },
    {
      "inputs": [
        {
          "internalType": "uint256",
          "name": "_bountyId",
          "type": "uint256"
        }
      ],
      "name": "claimBounty",
      "outputs": [],
      "stateMutability": "nonpayable",
      "type": "function"
    },
    {
      "inputs": [
        {
          "internalType": "string",
          "name": "_title",
          "type": "string"
        },
        {
          "internalType": "string",
          "name": "_descriptionURI",
          "type": "string"
        },
        {
          "internalType": "uint256",
          "name": "_amount",
          "type": "uint256"
        },
        {
          "internalType": "uint256",
          "name": "_duration",
          "type": "uint256"
        }
      ],
      "name": "createBounty",
      "outputs": [],
      "stateMutability": "nonpayable",
      "type": "function"
    },
    {
      "inputs": [],
      "name": "mneeToken",
      "outputs": [
        {
          "internalType": "contract IERC20",
          "name": "",
          "type": "address"
        }
      ],
      "stateMutability": "view",
      "type": "function"
    },
    {
      "inputs": [],
      "name": "nextBountyId",
      "outputs": [
        {
          "internalType": "uint256",
          "name": "",
          "type": "uint256"
        }
      ],
      "stateMutability": "view",
      "type": "function"
    },
    {
      "inputs": [],
      "name": "owner",
      "outputs": [
        {
          "internalType": "address",
          "name": "",
          "type": "address"
        }
      ],
      "stateMutability": "view",
      "type": "function"
    },
    {
      "inputs": [],
      "name": "renounceOwnership",
      "outputs": [],
      "stateMutability": "nonpayable",
      "type": "function"
    },
    {
      "inputs": [
        {
          "internalType": "uint256",
          "name": "_bountyId",
          "type": "uint256"
        },
        {
          "internalType": "string",
          "name": "_submissionURI",
          "type": "string"
        }
      ],
      "name": "submitWork",
      "outputs": [],
      "stateMutability": "nonpayable",
      "type": "function"
    },
    {
      "inputs": [
        {
          "internalType": "address",
          "name": "newOwner",
          "type": "address"
        }
      ],
      "name": "transferOwnership",
      "outputs": [],
      "stateMutability": "nonpayable",
      "type": "function"
    }
  ],
  "bytecode": "0x60806040523480156200001157600080fd5b5060405162001f3038038062001f3083398181016040528101906200003791906200023c565b33600073ffffffffffffffffffffffffffffffffffffffff168173ffffffffffffffffffffffffffffffffffffffff1603620000ad5760006040517f1e4fbdf7000000000000000000000000000000000000000000000000000000008152600401620000a491906200027f565b60405180910390fd5b620000be816200010e60201b60201c565b5080600360006101000a81548173ffffffffffffffffffffffffffffffffffffffff021916908373ffffffffffffffffffffffffffffffffffffffff16021790555060018081905550506200029c565b60008060009054906101000a900473ffffffffffffffffffffffffffffffffffffffff169050816000806101000a81548173ffffffffffffffffffffffffffffffffffffffff021916908373ffffffffffffffffffffffffffffffffffffffff1602179055508173ffffffffffffffffffffffffffffffffffffffff168173ffffffffffffffffffffffffffffffffffffffff167f8be0079c531659141344cd1fd0a4f28419497f9722a3daafe3b4186f6b6457e060405160405180910390a35050565b600080fd5b600073ffffffffffffffffffffffffffffffffffffffff82169050919050565b60006200020482620001d7565b9050919050565b6200021681620001f7565b81146200022257600080fd5b50565b60008151905062000236816200020b565b92915050565b600060208284031215620002555762000254620001d2565b5b6000620002658482850162000225565b91505092915050565b6200027981620001f7565b82525050565b60006020820190506200029660008301846200026e565b92915050565b611c8480620002ac6000396000f3fe608060405234801561001057600080fd5b506004361061009e5760003560e01c8063da8accf911610066578063da8accf914610121578063dc2f87441461013d578063e31202c014610176578063f2fde38b14610192578063fd14fad4146101ae5761009e565b80633d01e0fa146100a357806344021ad7146100bf5780635b71474a146100db578063715018a6146100f95780638da5cb5b14610103575b600080fd5b6100bd60048036038101906100b89190610f86565b6101cc565b005b6100d960048036038101906100d49190610f86565b61045e565b005b6100e36105eb565b6040516100f09190611032565b60405180910390f35b610101610611565b005b61010b610625565b604051610118919061106e565b60405180910390f35b61013b600480360381019061013691906111cf565b61064e565b005b61015760048036038101906101529190610f86565b6107eb565b60405161016d9a99989796959493929190611330565b60405180910390f35b610190600480360381019061018b91906113e1565b610a24565b005b6101ac60048036038101906101a791906114ac565b610d5d565b005b6101b6610de3565b6040516101c391906114d9565b60405180910390f35b60006002600083815260200190815260200160002090508060010160009054906101000a900473ffffffffffffffffffffffffffffffffffffffff1673ffffffffffffffffffffffffffffffffffffffff163373ffffffffffffffffffffffffffffffffffffffff1614610275576040517f08c379a000000000000000000000000000000000000000000000000000000000815260040161026c90611540565b60405180910390fd5b60026004811115610289576102886112b9565b5b8160080160009054906101000a900460ff1660048111156102ad576102ac6112b9565b5b146102ed576040517f08c379a00000000000000000000000000000000000000000000000000000000081526004016102e4906115ac565b60405180910390fd5b60038160080160006101000a81548160ff02191690836004811115610315576103146112b9565b5b0217905550600360009054906101000a900473ffffffffffffffffffffffffffffffffffffffff1673ffffffffffffffffffffffffffffffffffffffff1663a9059cbb8260060160009054906101000a900473ffffffffffffffffffffffffffffffffffffffff1683600401546040518363ffffffff1660e01b815260040161039f9291906115cc565b6020604051808303816000875af11580156103be573d6000803e3d6000fd5b505050506040513d601f19601f820116820180604052508101906103e2919061162d565b508060060160009054906101000a900473ffffffffffffffffffffffffffffffffffffffff1673ffffffffffffffffffffffffffffffffffffffff16827f285d0f935b4d6592b80efc46cc3d9eb3e93e27fe245f0a6c2b5b9a9d04800ee7836004015460405161045291906114d9565b60405180910390a35050565b600060026000838152602001908152602001600020905060006004811115610489576104886112b9565b5b8160080160009054906101000a900460ff1660048111156104ad576104ac6112b9565b5b146104ed576040517f08c379a00000000000000000000000000000000000000000000000000000000081526004016104e4906116a6565b60405180910390fd5b80600501544210610533576040517f08c379a000000000000000000000000000000000000000000000000000000000815260040161052a90611712565b60405180910390fd5b60018160080160006101000a81548160ff0219169083600481111561055b5761055a6112b9565b5b0217905550338160060160006101000a81548173ffffffffffffffffffffffffffffffffffffffff021916908373ffffffffffffffffffffffffffffffffffffffff1602179055503373ffffffffffffffffffffffffffffffffffffffff16827fbf59c0d059a57ebf273b4b1643599fc4b48cf5effdd82113a740ed64d262ec9360405160405180910390a35050565b600360009054906101000a900473ffffffffffffffffffffffffffffffffffffffff1681565b610619610de9565b6106236000610e70565b565b60008060009054906101000a900473ffffffffffffffffffffffffffffffffffffffff16905090565b600060026000848152602001908152602001600020905060016004811115610679576106786112b9565b5b8160080160009054906101000a900460ff16600481111561069d5761069c6112b9565b5b146106dd576040517f08c379a00000000000000000000000000000000000000000000000000000000081526004016106d49061177e565b60405180910390fd5b3373ffffffffffffffffffffffffffffffffffffffff168160060160009054906101000a900473ffffffffffffffffffffffffffffffffffffffff1673ffffffffffffffffffffffffffffffffffffffff161461076f576040517f08c379a0000000000000000000000000000000000000000000000000000000008152600401610766906117ea565b60405180910390fd5b60028160080160006101000a81548160ff02191690836004811115610797576107966112b9565b5b0217905550818160070190816107ad9190611a0c565b50827f3822c71b106c7c1dabf7f076e68c9bd98c45d0cd0d073f4dcdaf422a0fe55847836040516107de9190611ade565b60405180910390a2505050565b60026020528060005260406000206000915090508060000154908060010160009054906101000a900473ffffffffffffffffffffffffffffffffffffffff169080600201805461083a90611839565b80601f016020809104026020016040519081016040528092919081815260200182805461086690611839565b80156108b35780601f10610888576101008083540402835291602001916108b3565b820191906000526020600020905b81548152906001019060200180831161089657829003601f168201915b5050505050908060030180546108c890611839565b80601f01602080910402602001604051908101604052809291908181526020018280546108f490611839565b80156109415780601f1061091657610100808354040283529160200191610941565b820191906000526020600020905b81548152906001019060200180831161092457829003601f168201915b5050505050908060040154908060050154908060060160009054906101000a900473ffffffffffffffffffffffffffffffffffffffff169080600701805461098890611839565b80601f01602080910402602001604051908101604052809291908181526020018280546109b490611839565b8015610a015780601f106109d657610100808354040283529160200191610a01565b820191906000526020600020905b8154815290600101906020018083116109e457829003601f168201915b5050505050908060080160009054906101000a900460ff1690806009015490508a565b60008211610a67576040517f08c379a0000000000000000000000000000000000000000000000000000000008152600401610a5e90611b4c565b60405180910390fd5b600360009054906101000a900473ffffffffffffffffffffffffffffffffffffffff1673ffffffffffffffffffffffffffffffffffffffff166323b872dd3330856040518463ffffffff1660e01b8152600401610ac693929190611b6c565b6020604051808303816000875af1158015610ae5573d6000803e3d6000fd5b505050506040513d601f19601f82011682018060405250810190610b09919061162d565b5060405180610140016040528060015481526020013373ffffffffffffffffffffffffffffffffffffffff1681526020018581526020018481526020018381526020018242610b589190611bd2565b8152602001600073ffffffffffffffffffffffffffffffffffffffff16815260200160405180602001604052806000815250815260200160006004811115610ba357610ba26112b9565b5b8152602001428152506002600060015481526020019081526020016000206000820151816000015560208201518160010160006101000a81548173ffffffffffffffffffffffffffffffffffffffff021916908373ffffffffffffffffffffffffffffffffffffffff1602179055506040820151816002019081610c279190611a0c565b506060820151816003019081610c3d9190611a0c565b506080820151816004015560a0820151816005015560c08201518160060160006101000a81548173ffffffffffffffffffffffffffffffffffffffff021916908373ffffffffffffffffffffffffffffffffffffffff16021790555060e0820151816007019081610cae9190611a0c565b506101008201518160080160006101000a81548160ff02191690836004811115610cdb57610cda6112b9565b5b021790555061012082015181600901559050503373ffffffffffffffffffffffffffffffffffffffff166001547f1b5e39b039983ddb5862b33842ac157179867c6df1a61f69c50465fd14017f6e84604051610d3791906114d9565b60405180910390a360016000815480929190610d5290611c06565b919050555050505050565b610d65610de9565b600073ffffffffffffffffffffffffffffffffffffffff168173ffffffffffffffffffffffffffffffffffffffff1603610dd75760006040517f1e4fbdf7000000000000000000000000000000000000000000000000000000008152600401610dce919061106e565b60405180910390fd5b610de081610e70565b50565b60015481565b610df1610f34565b73ffffffffffffffffffffffffffffffffffffffff16610e0f610625565b73ffffffffffffffffffffffffffffffffffffffff1614610e6e57610e32610f34565b6040517f118cdaa7000000000000000000000000000000000000000000000000000000008152600401610e65919061106e565b60405180910390fd5b565b60008060009054906101000a900473ffffffffffffffffffffffffffffffffffffffff169050816000806101000a81548173ffffffffffffffffffffffffffffffffffffffff021916908373ffffffffffffffffffffffffffffffffffffffff1602179055508173ffffffffffffffffffffffffffffffffffffffff168173ffffffffffffffffffffffffffffffffffffffff167f8be0079c531659141344cd1fd0a4f28419497f9722a3daafe3b4186f6b6457e060405160405180910390a35050565b600033905090565b6000604051905090565b600080fd5b600080fd5b6000819050919050565b610f6381610f50565b8114610f6e57600080fd5b50565b600081359050610f8081610f5a565b92915050565b600060208284031215610f9c57610f9b610f46565b5b6000610faa84828501610f71565b91505092915050565b600073ffffffffffffffffffffffffffffffffffffffff82169050919050565b6000819050919050565b6000610ff8610ff3610fee84610fb3565b610fd3565b610fb3565b9050919050565b600061100a82610fdd565b9050919050565b600061101c82610fff565b9050919050565b61102c81611011565b82525050565b60006020820190506110476000830184611023565b92915050565b600061105882610fb3565b9050919050565b6110688161104d565b82525050565b6000602082019050611083600083018461105f565b92915050565b600080fd5b600080fd5b6000601f19601f8301169050919050565b7f4e487b7100000000000000000000000000000000000000000000000000000000600052604160045260246000fd5b6110dc82611093565b810181811067ffffffffffffffff821117156110fb576110fa6110a4565b5b80604052505050565b600061110e610f3c565b905061111a82826110d3565b919050565b600067ffffffffffffffff82111561113a576111396110a4565b5b61114382611093565b9050602081019050919050565b82818337600083830152505050565b600061117261116d8461111f565b611104565b90508281526020810184848401111561118e5761118d61108e565b5b611199848285611150565b509392505050565b600082601f8301126111b6576111b5611089565b5b81356111c684826020860161115f565b91505092915050565b600080604083850312156111e6576111e5610f46565b5b60006111f485828601610f71565b925050602083013567ffffffffffffffff81111561121557611214610f4b565b5b611221858286016111a1565b9150509250929050565b61123481610f50565b82525050565b600081519050919050565b600082825260208201905092915050565b60005b83811015611274578082015181840152602081019050611259565b60008484015250505050565b600061128b8261123a565b6112958185611245565b93506112a5818560208601611256565b6112ae81611093565b840191505092915050565b7f4e487b7100000000000000000000000000000000000000000000000000000000600052602160045260246000fd5b600581106112f9576112f86112b9565b5b50565b600081905061130a826112e8565b919050565b600061131a826112fc565b9050919050565b61132a8161130f565b82525050565b600061014082019050611346600083018d61122b565b611353602083018c61105f565b8181036040830152611365818b611280565b90508181036060830152611379818a611280565b9050611388608083018961122b565b61139560a083018861122b565b6113a260c083018761105f565b81810360e08301526113b48186611280565b90506113c4610100830185611321565b6113d261012083018461122b565b9b9a5050505050505050505050565b600080600080608085870312156113fb576113fa610f46565b5b600085013567ffffffffffffffff81111561141957611418610f4b565b5b611425878288016111a1565b945050602085013567ffffffffffffffff81111561144657611445610f4b565b5b611452878288016111a1565b935050604061146387828801610f71565b925050606061147487828801610f71565b91505092959194509250565b6114898161104d565b811461149457600080fd5b50565b6000813590506114a681611480565b92915050565b6000602082840312156114c2576114c1610f46565b5b60006114d084828501611497565b91505092915050565b60006020820190506114ee600083018461122b565b92915050565b7f4f6e6c792063726561746f722063616e20617070726f76650000000000000000600082015250565b600061152a601883611245565b9150611535826114f4565b602082019050919050565b600060208201905081810360008301526115598161151d565b9050919050565b7f576f726b206e6f74207375626d69747465640000000000000000000000000000600082015250565b6000611596601283611245565b91506115a182611560565b602082019050919050565b600060208201905081810360008301526115c581611589565b9050919050565b60006040820190506115e1600083018561105f565b6115ee602083018461122b565b9392505050565b60008115159050919050565b61160a816115f5565b811461161557600080fd5b50565b60008151905061162781611601565b92915050565b60006020828403121561164357611642610f46565b5b600061165184828501611618565b91505092915050565b7f426f756e7479206e6f74206f70656e0000000000000000000000000000000000600082015250565b6000611690600f83611245565b915061169b8261165a565b602082019050919050565b600060208201905081810360008301526116bf81611683565b9050919050565b7f426f756e74792065787069726564000000000000000000000000000000000000600082015250565b60006116fc600e83611245565b9150611707826116c6565b602082019050919050565b6000602082019050818103600083015261172b816116ef565b9050919050565b7f426f756e7479206e6f742061737369676e656400000000000000000000000000600082015250565b6000611768601383611245565b915061177382611732565b602082019050919050565b600060208201905081810360008301526117978161175b565b9050919050565b7f4e6f74207468652064657369676e617465642068756e74657200000000000000600082015250565b60006117d4601983611245565b91506117df8261179e565b602082019050919050565b60006020820190508181036000830152611803816117c7565b9050919050565b7f4e487b7100000000000000000000000000000000000000000000000000000000600052602260045260246000fd5b6000600282049050600182168061185157607f821691505b6020821081036118645761186361180a565b5b50919050565b60008190508160005260206000209050919050565b60006020601f8301049050919050565b600082821b905092915050565b6000600883026118cc7fffffffffffffffffffffffffffffffffffffffffffffffffffffffffffffffff8261188f565b6118d6868361188f565b95508019841693508086168417925050509392505050565b60006119096119046118ff84610f50565b610fd3565b610f50565b9050919050565b6000819050919050565b611923836118ee565b61193761192f82611910565b84845461189c565b825550505050565b600090565b61194c61193f565b61195781848461191a565b505050565b5b8181101561197b57611970600082611944565b60018101905061195d565b5050565b601f8211156119c0576119918161186a565b61199a8461187f565b810160208510156119a9578190505b6119bd6119b58561187f565b83018261195c565b50505b505050565b600082821c905092915050565b60006119e3600019846008026119c5565b1980831691505092915050565b60006119fc83836119d2565b9150826002028217905092915050565b611a158261123a565b67ffffffffffffffff811115611a2e57611a2d6110a4565b5b611a388254611839565b611a4382828561197f565b600060209050601f831160018114611a765760008415611a64578287015190505b611a6e85826119f0565b865550611ad6565b601f198416611a848661186a565b60005b82811015611aac57848901518255600182019150602085019450602081019050611a87565b86831015611ac95784890151611ac5601f8916826119d2565b8355505b6001600288020188555050505b505050505050565b60006020820190508181036000830152611af88184611280565b905092915050565b7f416d6f756e74206d757374206265203e20300000000000000000000000000000600082015250565b6000611b36601283611245565b9150611b4182611b00565b602082019050919050565b60006020820190508181036000830152611b6581611b29565b9050919050565b6000606082019050611b81600083018661105f565b611b8e602083018561105f565b611b9b604083018461122b565b949350505050565b7f4e487b7100000000000000000000000000000000000000000000000000000000600052601160045260246000fd5b6000611bdd82610f50565b9150611be883610f50565b9250828201905080821115611c0057611bff611ba3565b5b92915050565b6000611c1182610f50565b91507fffffffffffffffffffffffffffffffffffffffffffffffffffffffffffffffff8203611c4357611c42611ba3565b5b60018201905091905056fea264697066735822122048a0f533fffed7bb623f6f45eb837e91ccd1ba9b167e60bc7aa44eedd89866e564736f6c63430008180033",
  "linkReferences": {},
  "deployedLinkReferences": {}
}