{
  "_format": "hh-sol-artifact-1",
  "contractName": "GuildRegistry",
  "sourceName": "contracts/GuildRegistry.sol",
  "abi": [
    {
      "inputs": [],
      "stateMutability": "nonpayable",
      "type": "constructor"
    },
    {
      "inputs": [],
      "name": "AccessControlBadConfirmation",
      "type": "error"
    },
    {
      "inputs": [
        {
          "internalType": "address",
          "name": "account",
          "type": "address"
        },
        {
          "internalType": "bytes32",
          "name": "neededRole",
          "type": "bytes32"
        }
      ],
      "name": "AccessControlUnauthorizedAccount",
      "type": "error"
    },
    {
      "inputs": [
        {
          "internalType": "address",
          "name": "target",
          "type": "address"
        }
      ],
      "name": "AddressEmptyCode",
      "type": "error"
    },
    {
      "inputs": [
        {
          "internalType": "address",
          "name": "implementation",
          "type": "address"
        }
      ],
      "name": "ERC1967InvalidImplementation",
      "type": "error"
    },
    {
      "inputs": [],
      "name": "ERC1967NonPayable",
      "type": "error"
    },
    {
      "inputs": [],
      "name": "FailedCall",
      "type": "error"
    },
    {
      "inputs": [],
      "name": "InvalidInitialization",
      "type": "error"
    },
    {
      "inputs": [],
      "name": "NotInitializing",
      "type": "error"
    },
    {
      "inputs": [],
      "name": "ReentrancyGuardReentrantCall",
      "type": "error"
    },
    {
      "inputs": [],
      "name": "UUPSUnauthorizedCallContext",
      "type": "error"
    },
    {
      "inputs": [
        {
          "internalType": "bytes32",
          "name": "slot",
          "type": "bytes32"
        }
      ],
      "name": "UUPSUnsupportedProxiableUUID",
      "type": "error"
    },
    {
      "anonymous": false,
      "inputs": [
        {
          "indexed": true,
          "internalType": "uint256",
          "name": "guildId",
          "type": "uint256"
        },
        {
          "indexed": false,
          "internalType": "string",
          "name": "name",
          "type": "string"
        },
        {
          "indexed": true,
          "internalType": "address",
          "name": "master",
          "type": "address"
        },
        {
          "indexed": false,
          "internalType": "uint256",
          "name": "stake",
          "type": "uint256"
        }
      ],
      "name": "GuildCreated",
      "type": "event"
    },
    {
      "anonymous": false,
      "inputs": [
        {
          "indexed": false,
          "internalType": "uint64",
          "name": "version",
          "type": "uint64"
        }
      ],
      "name": "Initialized",
      "type": "event"
    },
    {
      "anonymous": false,
      "inputs": [
        {
          "indexed": true,
          "internalType": "uint256",
          "name": "guildId",
          "type": "uint256"
        },
        {
          "indexed": true,
          "internalType": "address",
          "name": "member",
          "type": "address"
        }
      ],
      "name": "MemberJoined",
      "type": "event"
    },
    {
      "anonymous": false,
      "inputs": [
        {
          "indexed": true,
          "internalType": "bytes32",
          "name": "role",
          "type": "bytes32"
        },
        {
          "indexed": true,
          "internalType": "bytes32",
          "name": "previousAdminRole",
          "type": "bytes32"
        },
        {
          "indexed": true,
          "internalType": "bytes32",
          "name": "newAdminRole",
          "type": "bytes32"
        }
      ],
      "name": "RoleAdminChanged",
      "type": "event"
    },
    {
      "anonymous": false,
      "inputs": [
        {
          "indexed": true,
          "internalType": "bytes32",
          "name": "role",
          "type": "bytes32"
        },
        {
          "indexed": true,
          "internalType": "address",
          "name": "account",
          "type": "address"
        },
        {
          "indexed": true,
          "internalType": "address",
          "name": "sender",
          "type": "address"
        }
      ],
      "name": "RoleGranted",
      "type": "event"
    },
    {
      "anonymous": false,
      "inputs": [
        {
          "indexed": true,
          "internalType": "bytes32",
          "name": "role",
          "type": "bytes32"
        },
        {
          "indexed": true,
          "internalType": "address",
          "name": "account",
          "type": "address"
        },
        {
          "indexed": true,
          "internalType": "address",
          "name": "sender",
          "type": "address"
        }
      ],
      "name": "RoleRevoked",
      "type": "event"
    },
    {
      "anonymous": false,
      "inputs": [
        {
          "indexed": true,
          "internalType": "address",
          "name": "implementation",
          "type": "address"
        }
      ],
      "name": "Upgraded",
      "type": "event"
    },
    {
      "inputs": [],
      "name": "ADMIN_ROLE",
      "outputs": [
        {
          "internalType": "bytes32",
          "name": "",
          "type": "bytes32"
        }
      ],
      "stateMutability": "view",
      "type": "function"
    },
    {
      "inputs": [],
      "name": "DEFAULT_ADMIN_ROLE",
      "outputs": [
        {
          "internalType": "bytes32",
          "name": "",
          "type": "bytes32"
        }
      ],
      "stateMutability": "view",
      "type": "function"
    },
    {
      "inputs": [],
      "name": "UPGRADER_ROLE",
      "outputs": [
        {
          "internalType": "bytes32",
          "name": "",
          "type": "bytes32"
        }
      ],
      "stateMutability": "view",
      "type": "function"
    },
    {
      "inputs": [],
      "name": "UPGRADE_INTERFACE_VERSION",
      "outputs": [
        {
          "internalType": "string",
          "name": "",
          "type": "string"
        }
      ],
      "stateMutability": "view",
      "type": "function"
    },
    {
      "inputs": [
        {
          "internalType": "string",
          "name": "_name",
          "type": "string"
        },
        {
          "internalType": "uint256",
          "name": "_stake",
          "type": "uint256"
        },
        {
          "internalType": "string",
          "name": "_metadataURI",
          "type": "string"
        }
      ],
      "name": "createGuild",
      "outputs": [],
      "stateMutability": "nonpayable",
      "type": "function"
    },
    {
      "inputs": [
        {
          "internalType": "uint256",
          "name": "_guildId",
          "type": "uint256"
        }
      ],
      "name": "getGuild",
      "outputs": [
        {
          "components": [
            {
              "internalType": "uint256",
              "name": "id",
              "type": "uint256"
            },
            {
              "internalType": "string",
              "name": "name",
              "type": "string"
            },
            {
              "internalType": "address",
              "name": "master",
              "type": "address"
            },
            {
              "internalType": "uint256",
              "name": "stake",
              "type": "uint256"
            },
            {
              "internalType": "string",
              "name": "metadataURI",
              "type": "string"
            },
            {
              "internalType": "bool",
              "name": "exists",
              "type": "bool"
            }
          ],
          "internalType": "struct GuildRegistry.Guild",
          "name": "",
          "type": "tuple"
        }
      ],
      "stateMutability": "view",
      "type": "function"
    },
    {
      "inputs": [
        {
          "internalType": "bytes32",
          "name": "role",
          "type": "bytes32"
        }
      ],
      "name": "getRoleAdmin",
      "outputs": [
        {
          "internalType": "bytes32",
          "name": "",
          "type": "bytes32"
        }
      ],
      "stateMutability": "view",
      "type": "function"
    },
    {
      "inputs": [
        {
          "internalType": "bytes32",
          "name": "role",
          "type": "bytes32"
        },
        {
          "internalType": "address",
          "name": "account",
          "type": "address"
        }
      ],
      "name": "grantRole",
      "outputs": [],
      "stateMutability": "nonpayable",
      "type": "function"
    },
    {
      "inputs": [
        {
          "internalType": "uint256",
          "name": "",
          "type": "uint256"
        }
      ],
      "name": "guilds",
      "outputs": [
        {
          "internalType": "uint256",
          "name": "id",
          "type": "uint256"
        },
        {
          "internalType": "string",
          "name": "name",
          "type": "string"
        },
        {
          "internalType": "address",
          "name": "master",
          "type": "address"
        },
        {
          "internalType": "uint256",
          "name": "stake",
          "type": "uint256"
        },
        {
          "internalType": "string",
          "name": "metadataURI",
          "type": "string"
        },
        {
          "internalType": "bool",
          "name": "exists",
          "type": "bool"
        }
      ],
      "stateMutability": "view",
      "type": "function"
    },
    {
      "inputs": [
        {
          "internalType": "bytes32",
          "name": "role",
          "type": "bytes32"
        },
        {
          "internalType": "address",
          "name": "account",
          "type": "address"
        }
      ],
      "name": "hasRole",
      "outputs": [
        {
          "internalType": "bool",
          "name": "",
          "type": "bool"
        }
      ],
      "stateMutability": "view",
      "type": "function"
    },
    {
      "inputs": [
        {
          "internalType": "address",
          "name": "_mneeToken",
          "type": "address"
        },
        {
          "internalType": "address",
          "name": "_admin",
          "type": "address"
        }
      ],
      "name": "initialize",
      "outputs": [],
      "stateMutability": "nonpayable",
      "type": "function"
    },
    {
      "inputs": [
        {
          "internalType": "uint256",
          "name": "_guildId",
          "type": "uint256"
        }
      ],
      "name": "joinGuild",
      "outputs": [],
      "stateMutability": "nonpayable",
      "type": "function"
    },
    {
      "inputs": [
        {
          "internalType": "address",
          "name": "",
          "type": "address"
        }
      ],
      "name": "members",
      "outputs": [
        {
          "internalType": "address",
          "name": "memberAddress",
          "type": "address"
        },
        {
          "internalType": "uint256",
          "name": "guildId",
          "type": "uint256"
        },
        {
          "internalType": "uint256",
          "name": "joinedAt",
          "type": "uint256"
        }
      ],
      "stateMutability": "view",
      "type": "function"
    },
    {
      "inputs": [],
      "name": "mneeToken",
      "outputs": [
        {
          "internalType": "contract IERC20",
          "name": "",
          "type": "address"
        }
      ],
      "stateMutability": "view",
      "type": "function"
    },
    {
      "inputs": [],
      "name": "nextGuildId",
      "outputs": [
        {
          "internalType": "uint256",
          "name": "",
          "type": "uint256"
        }
      ],
      "stateMutability": "view",
      "type": "function"
    },
    {
      "inputs": [],
      "name": "proxiableUUID",
      "outputs": [
        {
          "internalType": "bytes32",
          "name": "",
          "type": "bytes32"
        }
      ],
      "stateMutability": "view",
      "type": "function"
    },
    {
      "inputs": [
        {
          "internalType": "bytes32",
          "name": "role",
          "type": "bytes32"
        },
        {
          "internalType": "address",
          "name": "callerConfirmation",
          "type": "address"
        }
      ],
      "name": "renounceRole",
      "outputs": [],
      "stateMutability": "nonpayable",
      "type": "function"
    },
    {
      "inputs": [
        {
          "internalType": "bytes32",
          "name": "role",
          "type": "bytes32"
        },
        {
          "internalType": "address",
          "name": "account",
          "type": "address"
        }
      ],
      "name": "revokeRole",
      "outputs": [],
      "stateMutability": "nonpayable",
      "type": "function"
    },
    {
      "inputs": [
        {
          "internalType": "bytes4",
          "name": "interfaceId",
          "type": "bytes4"
        }
      ],
      "name": "supportsInterface",
      "outputs": [
        {
          "internalType": "bool",
          "name": "",
          "type": "bool"
        }
      ],
      "stateMutability": "view",
      "type": "function"
    },
    {
      "inputs": [
        {
          "internalType": "address",
          "name": "newImplementation",
          "type": "address"
        },
        {
          "internalType": "bytes",
          "name": "data",
          "type": "bytes"
        }
      ],
      "name": "upgradeToAndCall",
      "outputs": [],
      "stateMutability": "payable",
      "type": "function"
    }
  ],
  "bytecode": "0x60a06040523073ffffffffffffffffffffffffffffffffffffffff1660809073ffffffffffffffffffffffffffffffffffffffff168152503480156200004457600080fd5b50620000556200005b60201b60201c565b620001ee565b60006200006d6200016560201b60201c565b90508060000160089054906101000a900460ff1615620000b9576040517ff92ee8a900000000000000000000000000000000000000000000000000000000815260040160405180910390fd5b67ffffffffffffffff80168160000160009054906101000a900467ffffffffffffffff1667ffffffffffffffff1614620001625767ffffffffffffffff8160000160006101000a81548167ffffffffffffffff021916908367ffffffffffffffff1602179055507fc7f505b2f371ae2175ee4913f4499e1f2633a7b5936321eed1cdaeb6115181d267ffffffffffffffff604051620001599190620001d1565b60405180910390a15b50565b600080620001786200018160201b60201c565b90508091505090565b60007ff0c57e16840df040f15088dc2f81fe391c3923bec73e23a9662efc9c229c6a0060001b905090565b600067ffffffffffffffff82169050919050565b620001cb81620001ac565b82525050565b6000602082019050620001e86000830184620001c0565b92915050565b608051612e2962000218600039600081816116d70152818161172c015261190a0152612e296000f3fe60806040526004361061011f5760003560e01c806373ea5d32116100a0578063b6bdaba911610064578063b6bdaba9146103da578063d3e9669314610405578063d547741f14610442578063efe7b7af1461046b578063f72c0d8b146104ad5761011f565b806373ea5d32146102f357806375b238fc1461031c57806391d1485414610347578063a217fddf14610384578063ad3cb1cc146103af5761011f565b8063485cc955116100e7578063485cc9551461022f5780634f1ef2861461025857806352d1902d146102745780635597597c1461029f5780635b71474a146102c85761011f565b806301ffc9a71461012457806308ae4b0c14610161578063248a9ca3146101a05780632f2ff15d146101dd57806336568abe14610206575b600080fd5b34801561013057600080fd5b5061014b60048036038101906101469190611ef9565b6104d8565b6040516101589190611f41565b60405180910390f35b34801561016d57600080fd5b5061018860048036038101906101839190611fba565b610552565b6040516101979392919061200f565b60405180910390f35b3480156101ac57600080fd5b506101c760048036038101906101c2919061207c565b61059c565b6040516101d491906120b8565b60405180910390f35b3480156101e957600080fd5b5061020460048036038101906101ff91906120d3565b6105ca565b005b34801561021257600080fd5b5061022d600480360381019061022891906120d3565b6105ec565b005b34801561023b57600080fd5b5061025660048036038101906102519190612113565b610667565b005b610272600480360381019061026d9190612299565b6108b3565b005b34801561028057600080fd5b506102896108d2565b60405161029691906120b8565b60405180910390f35b3480156102ab57600080fd5b506102c660048036038101906102c191906123c2565b610905565b005b3480156102d457600080fd5b506102dd610d4f565b6040516102ea91906124ac565b60405180910390f35b3480156102ff57600080fd5b5061031a600480360381019061031591906124c7565b610d75565b005b34801561032857600080fd5b50610331610f72565b60405161033e91906120b8565b60405180910390f35b34801561035357600080fd5b5061036e600480360381019061036991906120d3565b610f96565b60405161037b9190611f41565b60405180910390f35b34801561039057600080fd5b5061039961100f565b6040516103a691906120b8565b60405180910390f35b3480156103bb57600080fd5b506103c4611016565b6040516103d19190612573565b60405180910390f35b3480156103e657600080fd5b506103ef61104f565b6040516103fc9190612595565b60405180910390f35b34801561041157600080fd5b5061042c600480360381019061042791906124c7565b611055565b60405161043991906126b7565b60405180910390f35b34801561044e57600080fd5b50610469600480360381019061046491906120d3565b61122b565b005b34801561047757600080fd5b50610492600480360381019061048d91906124c7565b61124d565b6040516104a4969594939291906126d9565b60405180910390f35b3480156104b957600080fd5b506104c26113c6565b6040516104cf91906120b8565b60405180910390f35b60007f7965db0b000000000000000000000000000000000000000000000000000000007bffffffffffffffffffffffffffffffffffffffffffffffffffffffff1916827bffffffffffffffffffffffffffffffffffffffffffffffffffffffff1916148061054b575061054a826113ea565b5b9050919050565b60026020528060005260406000206000915090508060000160009054906101000a900473ffffffffffffffffffffffffffffffffffffffff16908060010154908060020154905083565b6000806105a7611454565b905080600001600084815260200190815260200160002060010154915050919050565b6105d38261059c565b6105dc8161147c565b6105e68383611490565b50505050565b6105f4611591565b73ffffffffffffffffffffffffffffffffffffffff168173ffffffffffffffffffffffffffffffffffffffff1614610658576040517f6697b23200000000000000000000000000000000000000000000000000000000815260040160405180910390fd5b6106628282611599565b505050565b600061067161169b565b905060008160000160089054906101000a900460ff1615905060008260000160009054906101000a900467ffffffffffffffff1690506000808267ffffffffffffffff161480156106bf5750825b9050600060018367ffffffffffffffff161480156106f4575060003073ffffffffffffffffffffffffffffffffffffffff163b145b905081158015610702575080155b15610739576040517ff92ee8a900000000000000000000000000000000000000000000000000000000815260040160405180910390fd5b60018560000160006101000a81548167ffffffffffffffff021916908367ffffffffffffffff16021790555083156107895760018560000160086101000a81548160ff0219169083151502179055505b6107916116af565b6107996116b9565b6107a16116c3565b6107ae6000801b87611490565b506107d97fa49807205ce4d355092ef5a8a18f56e8913cf4a201fbe287825b095693c2177587611490565b506108047f189ab7a9244df0848122154315af71fe140f3db0fe014031783b0946b8c9d2e387611490565b5086600360006101000a81548173ffffffffffffffffffffffffffffffffffffffff021916908373ffffffffffffffffffffffffffffffffffffffff160217905550600160008190555083156108aa5760008560000160086101000a81548160ff0219169083151502179055507fc7f505b2f371ae2175ee4913f4499e1f2633a7b5936321eed1cdaeb6115181d260016040516108a19190612797565b60405180910390a15b50505050505050565b6108bb6116d5565b6108c4826117bb565b6108ce82826117e9565b5050565b60006108dc611908565b7f360894a13ba1a3210667c828492db98dca3e2076cc3735a920a3ca505d382bbc60001b905090565b61090d61198f565b6000600260003373ffffffffffffffffffffffffffffffffffffffff1673ffffffffffffffffffffffffffffffffffffffff1681526020019081526020016000206001015414610992576040517f08c379a0000000000000000000000000000000000000000000000000000000008152600401610989906127fe565b60405180910390fd5b600082116109d5576040517f08c379a00000000000000000000000000000000000000000000000000000000081526004016109cc9061286a565b60405180910390fd5b6000600360009054906101000a900473ffffffffffffffffffffffffffffffffffffffff1673ffffffffffffffffffffffffffffffffffffffff166323b872dd3330866040518463ffffffff1660e01b8152600401610a369392919061288a565b6020604051808303816000875af1158015610a55573d6000803e3d6000fd5b505050506040513d601f19601f82011682018060405250810190610a7991906128ed565b905080610abb576040517f08c379a0000000000000000000000000000000000000000000000000000000008152600401610ab290612966565b60405180910390fd5b6040518060c0016040528060005481526020018581526020013373ffffffffffffffffffffffffffffffffffffffff168152602001848152602001838152602001600115158152506001600080548152602001908152602001600020600082015181600001556020820151816001019081610b369190612b88565b5060408201518160020160006101000a81548173ffffffffffffffffffffffffffffffffffffffff021916908373ffffffffffffffffffffffffffffffffffffffff160217905550606082015181600301556080820151816004019081610b9d9190612b88565b5060a08201518160050160006101000a81548160ff02191690831515021790555090505060405180606001604052803373ffffffffffffffffffffffffffffffffffffffff168152602001600054815260200142815250600260003373ffffffffffffffffffffffffffffffffffffffff1673ffffffffffffffffffffffffffffffffffffffff16815260200190815260200160002060008201518160000160006101000a81548173ffffffffffffffffffffffffffffffffffffffff021916908373ffffffffffffffffffffffffffffffffffffffff16021790555060208201518160010155604082015181600201559050503373ffffffffffffffffffffffffffffffffffffffff166000547f562b81b89f8b6cd34b7b6915daffd14c99d1eac5f7c51090292588eca4e67f238686604051610cdc929190612c5a565b60405180910390a33373ffffffffffffffffffffffffffffffffffffffff166000547f78da64a590c3052953ad9e0a5546bbf12bb68ae7634e3fb2a774e22a8c6557c160405160405180910390a3600080815480929190610d3c90612cb9565b919050555050610d4a6119e6565b505050565b600360009054906101000a900473ffffffffffffffffffffffffffffffffffffffff1681565b6001600082815260200190815260200160002060050160009054906101000a900460ff16610dd8576040517f08c379a0000000000000000000000000000000000000000000000000000000008152600401610dcf90612d4d565b60405180910390fd5b6000600260003373ffffffffffffffffffffffffffffffffffffffff1673ffffffffffffffffffffffffffffffffffffffff1681526020019081526020016000206001015414610e5d576040517f08c379a0000000000000000000000000000000000000000000000000000000008152600401610e54906127fe565b60405180910390fd5b60405180606001604052803373ffffffffffffffffffffffffffffffffffffffff16815260200182815260200142815250600260003373ffffffffffffffffffffffffffffffffffffffff1673ffffffffffffffffffffffffffffffffffffffff16815260200190815260200160002060008201518160000160006101000a81548173ffffffffffffffffffffffffffffffffffffffff021916908373ffffffffffffffffffffffffffffffffffffffff16021790555060208201518160010155604082015181600201559050503373ffffffffffffffffffffffffffffffffffffffff16817f78da64a590c3052953ad9e0a5546bbf12bb68ae7634e3fb2a774e22a8c6557c160405160405180910390a350565b7fa49807205ce4d355092ef5a8a18f56e8913cf4a201fbe287825b095693c2177581565b600080610fa1611454565b905080600001600085815260200190815260200160002060000160008473ffffffffffffffffffffffffffffffffffffffff1673ffffffffffffffffffffffffffffffffffffffff16815260200190815260200160002060009054906101000a900460ff1691505092915050565b6000801b81565b6040518060400160405280600581526020017f352e302e3000000000000000000000000000000000000000000000000000000081525081565b60005481565b61105d611e3f565b600160008381526020019081526020016000206040518060c001604052908160008201548152602001600182018054611095906129b5565b80601f01602080910402602001604051908101604052809291908181526020018280546110c1906129b5565b801561110e5780601f106110e35761010080835404028352916020019161110e565b820191906000526020600020905b8154815290600101906020018083116110f157829003601f168201915b505050505081526020016002820160009054906101000a900473ffffffffffffffffffffffffffffffffffffffff1673ffffffffffffffffffffffffffffffffffffffff1673ffffffffffffffffffffffffffffffffffffffff16815260200160038201548152602001600482018054611187906129b5565b80601f01602080910402602001604051908101604052809291908181526020018280546111b3906129b5565b80156112005780601f106111d557610100808354040283529160200191611200565b820191906000526020600020905b8154815290600101906020018083116111e357829003601f168201915b505050505081526020016005820160009054906101000a900460ff1615151515815250509050919050565b6112348261059c565b61123d8161147c565b6112478383611599565b50505050565b6001602052806000526040600020600091509050806000015490806001018054611276906129b5565b80601f01602080910402602001604051908101604052809291908181526020018280546112a2906129b5565b80156112ef5780601f106112c4576101008083540402835291602001916112ef565b820191906000526020600020905b8154815290600101906020018083116112d257829003601f168201915b5050505050908060020160009054906101000a900473ffffffffffffffffffffffffffffffffffffffff1690806003015490806004018054611330906129b5565b80601f016020809104026020016040519081016040528092919081815260200182805461135c906129b5565b80156113a95780601f1061137e576101008083540402835291602001916113a9565b820191906000526020600020905b81548152906001019060200180831161138c57829003601f168201915b5050505050908060050160009054906101000a900460ff16905086565b7f189ab7a9244df0848122154315af71fe140f3db0fe014031783b0946b8c9d2e381565b60007f01ffc9a7000000000000000000000000000000000000000000000000000000007bffffffffffffffffffffffffffffffffffffffffffffffffffffffff1916827bffffffffffffffffffffffffffffffffffffffffffffffffffffffff1916149050919050565b60007f02dd7bc7dec4dceedda775e58dd541e08a116c6c53815c0bd028192f7b626800905090565b61148d81611488611591565b6119ff565b50565b60008061149b611454565b90506114a78484610f96565b61158557600181600001600086815260200190815260200160002060000160008573ffffffffffffffffffffffffffffffffffffffff1673ffffffffffffffffffffffffffffffffffffffff16815260200190815260200160002060006101000a81548160ff021916908315150217905550611521611591565b73ffffffffffffffffffffffffffffffffffffffff168373ffffffffffffffffffffffffffffffffffffffff16857f2f8788117e7eff1d82e926ec794901d17c78024a50270940304540a733656f0d60405160405180910390a4600191505061158b565b60009150505b92915050565b600033905090565b6000806115a4611454565b90506115b08484610f96565b1561168f57600081600001600086815260200190815260200160002060000160008573ffffffffffffffffffffffffffffffffffffffff1673ffffffffffffffffffffffffffffffffffffffff16815260200190815260200160002060006101000a81548160ff02191690831515021790555061162b611591565b73ffffffffffffffffffffffffffffffffffffffff168373ffffffffffffffffffffffffffffffffffffffff16857ff6391f5c32d9c69d2a47ea670b442974b53935d1edc7fd64eb21e047a839171b60405160405180910390a46001915050611695565b60009150505b92915050565b6000806116a6611a50565b90508091505090565b6116b7611a7b565b565b6116c1611a7b565b565b6116cb611a7b565b6116d3611abb565b565b7f000000000000000000000000000000000000000000000000000000000000000073ffffffffffffffffffffffffffffffffffffffff163073ffffffffffffffffffffffffffffffffffffffff16148061178257507f000000000000000000000000000000000000000000000000000000000000000073ffffffffffffffffffffffffffffffffffffffff16611769611adc565b73ffffffffffffffffffffffffffffffffffffffff1614155b156117b9576040517fe07c8dba00000000000000000000000000000000000000000000000000000000815260040160405180910390fd5b565b7f189ab7a9244df0848122154315af71fe140f3db0fe014031783b0946b8c9d2e36117e58161147c565b5050565b8173ffffffffffffffffffffffffffffffffffffffff166352d1902d6040518163ffffffff1660e01b8152600401602060405180830381865afa92505050801561185157506040513d601f19601f8201168201806040525081019061184e9190612d82565b60015b61189257816040517f4c9c8ce30000000000000000000000000000000000000000000000000000000081526004016118899190612daf565b60405180910390fd5b7f360894a13ba1a3210667c828492db98dca3e2076cc3735a920a3ca505d382bbc60001b81146118f957806040517faa1d49a40000000000000000000000000000000000000000000000000000000081526004016118f091906120b8565b60405180910390fd5b6119038383611b33565b505050565b7f000000000000000000000000000000000000000000000000000000000000000073ffffffffffffffffffffffffffffffffffffffff163073ffffffffffffffffffffffffffffffffffffffff161461198d576040517fe07c8dba00000000000000000000000000000000000000000000000000000000815260040160405180910390fd5b565b6000611999611ba6565b905060028160000154036119d9576040517f3ee5aeb500000000000000000000000000000000000000000000000000000000815260040160405180910390fd5b6002816000018190555050565b60006119f0611ba6565b90506001816000018190555050565b611a098282610f96565b611a4c5780826040517fe2517d3f000000000000000000000000000000000000000000000000000000008152600401611a43929190612dca565b60405180910390fd5b5050565b60007ff0c57e16840df040f15088dc2f81fe391c3923bec73e23a9662efc9c229c6a0060001b905090565b611a83611bce565b611ab9576040517fd7e6bcf800000000000000000000000000000000000000000000000000000000815260040160405180910390fd5b565b611ac3611a7b565b6000611acd611ba6565b90506001816000018190555050565b6000611b0a7f360894a13ba1a3210667c828492db98dca3e2076cc3735a920a3ca505d382bbc60001b611bee565b60000160009054906101000a900473ffffffffffffffffffffffffffffffffffffffff16905090565b611b3c82611bf8565b8173ffffffffffffffffffffffffffffffffffffffff167fbc7cd75a20ee27fd9adebab32041f755214dbc6bffa90cc0225b39da2e5c2d3b60405160405180910390a2600081511115611b9957611b938282611cc5565b50611ba2565b611ba1611dba565b5b5050565b60007f9b779b17422d0df92223018b32b4d1fa46e071723d6817e2486d003becc55f00905090565b6000611bd861169b565b60000160089054906101000a900460ff16905090565b6000819050919050565b60008173ffffffffffffffffffffffffffffffffffffffff163b03611c5457806040517f4c9c8ce3000000000000000000000000000000000000000000000000000000008152600401611c4b9190612daf565b60405180910390fd5b80611c817f360894a13ba1a3210667c828492db98dca3e2076cc3735a920a3ca505d382bbc60001b611bee565b60000160006101000a81548173ffffffffffffffffffffffffffffffffffffffff021916908373ffffffffffffffffffffffffffffffffffffffff16021790555050565b60606000611cd38484611df7565b9050808015611d0b57506000611ce7611e0d565b1180611d0a575060008473ffffffffffffffffffffffffffffffffffffffff163b115b5b15611d2057611d18611e15565b915050611db4565b8015611d6357836040517f9996b315000000000000000000000000000000000000000000000000000000008152600401611d5a9190612daf565b60405180910390fd5b6000611d6d611e0d565b1115611d8057611d7b611e33565b611db2565b6040517fd6bda27500000000000000000000000000000000000000000000000000000000815260040160405180910390fd5b505b92915050565b6000341115611df5576040517fb398979f00000000000000000000000000000000000000000000000000000000815260040160405180910390fd5b565b6000806000835160208501865af4905092915050565b60003d905090565b606060405190503d81523d6000602083013e3d602001810160405290565b6040513d6000823e3d81fd5b6040518060c001604052806000815260200160608152602001600073ffffffffffffffffffffffffffffffffffffffff16815260200160008152602001606081526020016000151581525090565b6000604051905090565b600080fd5b600080fd5b60007fffffffff0000000000000000000000000000000000000000000000000000000082169050919050565b611ed681611ea1565b8114611ee157600080fd5b50565b600081359050611ef381611ecd565b92915050565b600060208284031215611f0f57611f0e611e97565b5b6000611f1d84828501611ee4565b91505092915050565b60008115159050919050565b611f3b81611f26565b82525050565b6000602082019050611f566000830184611f32565b92915050565b600073ffffffffffffffffffffffffffffffffffffffff82169050919050565b6000611f8782611f5c565b9050919050565b611f9781611f7c565b8114611fa257600080fd5b50565b600081359050611fb481611f8e565b92915050565b600060208284031215611fd057611fcf611e97565b5b6000611fde84828501611fa5565b91505092915050565b611ff081611f7c565b82525050565b6000819050919050565b61200981611ff6565b82525050565b60006060820190506120246000830186611fe7565b6120316020830185612000565b61203e6040830184612000565b949350505050565b6000819050919050565b61205981612046565b811461206457600080fd5b50565b60008135905061207681612050565b92915050565b60006020828403121561209257612091611e97565b5b60006120a084828501612067565b91505092915050565b6120b281612046565b82525050565b60006020820190506120cd60008301846120a9565b92915050565b600080604083850312156120ea576120e9611e97565b5b60006120f885828601612067565b925050602061210985828601611fa5565b9150509250929050565b6000806040838503121561212a57612129611e97565b5b600061213885828601611fa5565b925050602061214985828601611fa5565b9150509250929050565b600080fd5b600080fd5b6000601f19601f8301169050919050565b7f4e487b7100000000000000000000000000000000000000000000000000000000600052604160045260246000fd5b6121a68261215d565b810181811067ffffffffffffffff821117156121c5576121c461216e565b5b80604052505050565b60006121d8611e8d565b90506121e4828261219d565b919050565b600067ffffffffffffffff8211156122045761220361216e565b5b61220d8261215d565b9050602081019050919050565b82818337600083830152505050565b600061223c612237846121e9565b6121ce565b90508281526020810184848401111561225857612257612158565b5b61226384828561221a565b509392505050565b600082601f8301126122805761227f612153565b5b8135612290848260208601612229565b91505092915050565b600080604083850312156122b0576122af611e97565b5b60006122be85828601611fa5565b925050602083013567ffffffffffffffff8111156122df576122de611e9c565b5b6122eb8582860161226b565b9150509250929050565b600067ffffffffffffffff8211156123105761230f61216e565b5b6123198261215d565b9050602081019050919050565b6000612339612334846122f5565b6121ce565b90508281526020810184848401111561235557612354612158565b5b61236084828561221a565b509392505050565b600082601f83011261237d5761237c612153565b5b813561238d848260208601612326565b91505092915050565b61239f81611ff6565b81146123aa57600080fd5b50565b6000813590506123bc81612396565b92915050565b6000806000606084860312156123db576123da611e97565b5b600084013567ffffffffffffffff8111156123f9576123f8611e9c565b5b61240586828701612368565b9350506020612416868287016123ad565b925050604084013567ffffffffffffffff81111561243757612436611e9c565b5b61244386828701612368565b9150509250925092565b6000819050919050565b600061247261246d61246884611f5c565b61244d565b611f5c565b9050919050565b600061248482612457565b9050919050565b600061249682612479565b9050919050565b6124a68161248b565b82525050565b60006020820190506124c1600083018461249d565b92915050565b6000602082840312156124dd576124dc611e97565b5b60006124eb848285016123ad565b91505092915050565b600081519050919050565b600082825260208201905092915050565b60005b8381101561252e578082015181840152602081019050612513565b60008484015250505050565b6000612545826124f4565b61254f81856124ff565b935061255f818560208601612510565b6125688161215d565b840191505092915050565b6000602082019050818103600083015261258d818461253a565b905092915050565b60006020820190506125aa6000830184612000565b92915050565b6125b981611ff6565b82525050565b600082825260208201905092915050565b60006125db826124f4565b6125e581856125bf565b93506125f5818560208601612510565b6125fe8161215d565b840191505092915050565b61261281611f7c565b82525050565b61262181611f26565b82525050565b600060c08301600083015161263f60008601826125b0565b506020830151848203602086015261265782826125d0565b915050604083015161266c6040860182612609565b50606083015161267f60608601826125b0565b506080830151848203608086015261269782826125d0565b91505060a08301516126ac60a0860182612618565b508091505092915050565b600060208201905081810360008301526126d18184612627565b905092915050565b600060c0820190506126ee6000830189612000565b8181036020830152612700818861253a565b905061270f6040830187611fe7565b61271c6060830186612000565b818103608083015261272e818561253a565b905061273d60a0830184611f32565b979650505050505050565b6000819050919050565b600067ffffffffffffffff82169050919050565b600061278161277c61277784612748565b61244d565b612752565b9050919050565b61279181612766565b82525050565b60006020820190506127ac6000830184612788565b92915050565b7f416c726561647920696e2061206775696c640000000000000000000000000000600082015250565b60006127e86012836124ff565b91506127f3826127b2565b602082019050919050565b60006020820190508181036000830152612817816127db565b9050919050565b7f5374616b65206d757374206265203e2030000000000000000000000000000000600082015250565b60006128546011836124ff565b915061285f8261281e565b602082019050919050565b6000602082019050818103600083015261288381612847565b9050919050565b600060608201905061289f6000830186611fe7565b6128ac6020830185611fe7565b6128b96040830184612000565b949350505050565b6128ca81611f26565b81146128d557600080fd5b50565b6000815190506128e7816128c1565b92915050565b60006020828403121561290357612902611e97565b5b6000612911848285016128d8565b91505092915050565b7f5374616b65207472616e73666572206661696c65640000000000000000000000600082015250565b60006129506015836124ff565b915061295b8261291a565b602082019050919050565b6000602082019050818103600083015261297f81612943565b9050919050565b7f4e487b7100000000000000000000000000000000000000000000000000000000600052602260045260246000fd5b600060028204905060018216806129cd57607f821691505b6020821081036129e0576129df612986565b5b50919050565b60008190508160005260206000209050919050565b60006020601f8301049050919050565b600082821b905092915050565b600060088302612a487fffffffffffffffffffffffffffffffffffffffffffffffffffffffffffffffff82612a0b565b612a528683612a0b565b95508019841693508086168417925050509392505050565b6000612a85612a80612a7b84611ff6565b61244d565b611ff6565b9050919050565b6000819050919050565b612a9f83612a6a565b612ab3612aab82612a8c565b848454612a18565b825550505050565b600090565b612ac8612abb565b612ad3818484612a96565b505050565b5b81811015612af757612aec600082612ac0565b600181019050612ad9565b5050565b601f821115612b3c57612b0d816129e6565b612b16846129fb565b81016020851015612b25578190505b612b39612b31856129fb565b830182612ad8565b50505b505050565b600082821c905092915050565b6000612b5f60001984600802612b41565b1980831691505092915050565b6000612b788383612b4e565b9150826002028217905092915050565b612b91826124f4565b67ffffffffffffffff811115612baa57612ba961216e565b5b612bb482546129b5565b612bbf828285612afb565b600060209050601f831160018114612bf25760008415612be0578287015190505b612bea8582612b6c565b865550612c52565b601f198416612c00866129e6565b60005b82811015612c2857848901518255600182019150602085019450602081019050612c03565b86831015612c455784890151612c41601f891682612b4e565b8355505b6001600288020188555050505b505050505050565b60006040820190508181036000830152612c74818561253a565b9050612c836020830184612000565b9392505050565b7f4e487b7100000000000000000000000000000000000000000000000000000000600052601160045260246000fd5b6000612cc482611ff6565b91507fffffffffffffffffffffffffffffffffffffffffffffffffffffffffffffffff8203612cf657612cf5612c8a565b5b600182019050919050565b7f4775696c6420646f6573206e6f74206578697374000000000000000000000000600082015250565b6000612d376014836124ff565b9150612d4282612d01565b602082019050919050565b60006020820190508181036000830152612d6681612d2a565b9050919050565b600081519050612d7c81612050565b92915050565b600060208284031215612d9857612d97611e97565b5b6000612da684828501612d6d565b91505092915050565b6000602082019050612dc46000830184611fe7565b92915050565b6000604082019050612ddf6000830185611fe7565b612dec60208301846120a9565b939250505056fea2646970667358221220c78957d686414e58b3b82339d19c388498fe96ccf7c0d4d1b7ce0bb8526f74ba64736f6c63430008180033",
  "linkReferences": {},
  "deployedLinkReferences": {}
}